:100000000C9444090C9461090C9461090C946109E5
:100010000C9461090C9461090C9461090C946109B8
:100020000C9461090C9461090C9461090C946109A8
:100030000C9461090C9461090C9461090C94610998
:100040000C94CC220C94660B0C94A90B0C94DA1231
:100050000C9461090C9461090C9461090C94610978
:100060000C9461090C9461092E190E19BA17BA176C
:10007000BA17BA17E718B419BA17BA17BA177E1908
:10008000BA17BA17BA17BA17BA17BA17BA17BA17E8
:10009000791974196519BA17BA17BA17BA17BA17AE
:1000A000BA17BA17BA175B195119BA17BA17BA178C
:1000B000BA17BA17BA17BA17BA17BA17BA17BA17B8
:1000C000BA17BA17BA17BA17BA17BA17BA17BA17A8
:1000D0004219691A641A5F1ABA17BA17441A3A1AF7
:1000E0001F1A041AEF19781A951ABA17BA17BA17FD
:1000F000BA17BA17BA17BA17BA17BA17BA17BA1778
:100100006E1ABA17BA17BA17BA17BA17BA17BA17B0
:10011000BA17BA17BA17BA17BA17BA17BA17BA1757
:10012000BA17BA17BA17BA17BA17BA17BA17BA1747
:10013000E3188B1ABA17BA17BA17BA17BA17BA1739
:10014000BA17BA17BA17BA17861A901AEA193319D2
:10015000BA17BA17BA17BA17BA17B11AE624F82B92
:10016000592A5F285F284B2A102C012C2729222985
:100170003D2A312A5F285F285F285F28A929A12905
:1001800097298D2983296C2962295529656565651B
:100190006565656565656565657A1129425D7917EF
:1001A00037597D22657A1129425D791737597D22A9
:1001B000657A1129425D791737597D22657A1129AF
:1001C000425D791737597D22657A1129425D791789
:1001D00037597D22657A1129425D791737597D2279
:1001E000657A1129425D791737597D22657A11297F
:1001F000425D791737597D22657A1129425D791759
:1002000037597D22657A1129425D655D1010101005
:1002100010101010101010101010181818181820A6
:1002200020202028111119191919192121212129FA
:1002300012121A1A1A1A1A222222222A13131B1B0A
:100240001B1B1B232323232B14141C1C1C1C1C24CE
:100250002424242C15151D1D1D1D1D252525252D8A
:1002600016161E1E1E1E1E262626262E17171F1F9A
:100270001F1F1F272727272F10101818181818209E
:1002800020202028111119191919101E794302670D
:10029000FF9D0010402333E2730050001241D358F9
:1002A0000110002363D40201100079432322F59E3C
:1002B0000010002232FF720050002322FD66011060
:1002C000001352F42801100079452342D651004012
:1002D000061361D7220110003343DE2D00200013E6
:1002E00051DF2201200079452351FE684513062382
:1002F000A3D30A4327002251C35C10170533A3D3AD
:100300000A442300798323A3B36D3030012292B4D1
:100310006F0430001344A14D0420011371A814315F
:100320001000794553C4FB8C4470951282FF124132
:10033000100013B0F1494410021372FF1041100075
:1003400079462352E0010010240352F35300601851
:100350000313F6720070202372EF10031028794304
:100360001261FF6044102D1251F074441000337379
:10037000F26D4470202392F220413000794563569B
:10038000EF560090124244DE180110006366EC5BE9
:1003900000B0284244EE1801100079473349F42494
:1003A000447000233BFB3C4440002343F449442079
:1003B000013244FE1044100079452325508200206C
:1003C000083324F0050113002325A07000900813C2
:1003D00012F01801170079452244C25C41700023D5
:1003E00059D61E5140002334C2785180003242DF7A
:1003F0001C31100079454347AFA100C0074254BFEC
:10040000140110006347BF840060005354DF1401DF
:10041000100079456269FD620050025277FD0C03BD
:1004200010006366FA760050006276FE0203100048
:1004300079453234F54130A0802233F214031000A4
:100440003234F5413073472233F2160327007946E0
:10045000424AEC1A00200B3233B5510030083233D7
:10046000D0280010004244C61803100079C202C40C
:10047000F00230000002C5F00100102002C5D11EBC
:1004800030314802C1F01E302020794702A5E10E2C
:100490005002040208D57400200002A5E1061313DF
:1004A0000002A6E006032700798702DFF02570131B
:1004B0000402AFB1155010A802EFF0241326000279
:1004C000EFF0243307887947025F904E0030000236
:1004D00027B274007000025F801200100002578083
:1004E00012000028798503587162002083036F5041
:1004F00002011000035C6329001028037F500101F2
:10050000200079850202815400368A02A272090114
:100510001700020F614800128802AF701E0123000D
:100520007984029FF0B307E000028FF0A411A000CD
:10053000028FF090031000028F600E0120007905F9
:10054000020C703C30216402A2702A112100020FBB
:10055000705010102B02AF70283110807985134134
:10056000E8550010063273FF000110005355B438EF
:100570000030084294DF3603100079441247F26AD3
:1005800044902C1383F5B645D0001342F15E45101C
:10059000062283DF1025100079431377F3454510B9
:1005A000001245F24B4550000272FF7D45300002BB
:1005B00082CF1045100079C5222AF13D0010082293
:1005C00092FF0E0310002332F6410030204284E6F1
:1005D0000E03100079856378D7440000073299E74D
:1005E000000300003283E91300100033A4B30003BA
:1005F000100079440328FF4C4407620211C13D44B6
:10060000230002A2B13C44100012A1B128442000F2
:100610007984022CB02100201C02A5C174001000B6
:1006200002A5C15C00204002A1C53C0310307985C1
:100630008272F0590000453293DF18012040827227
:10064000B0440000057277AF34052030794533831C
:10065000BA390010033283CB000510003213911F0A
:100660000010003283CA1405100079431332A172BE
:10067000441006336494E844C0002333B25A441053
:10068000001381B20044200079432337F14E441017
:1006900005436BC7544470002369F25E4420006335
:1006A00082B60044100079432333C17645120433E7
:1006B00063A366451100236391664510002381B250
:1006C0000045200079432337F23A4410036366F46F
:1006D000544490002369C262441000F382FF0C442A
:1006E000100079432337F13A4410026275B248444E
:1006F000D0002369927A4410006382F618441000F7
:1007000079832286E5380010051284E69D0020409A
:100710001282E68C0110002282E900071000794560
:100720007285F6504420067281FC014420007273E9
:10073000F6504410067282FC0144100079850330A3
:10074000604A1010620274620C01150073A5E01972
:1007500000403272776F0E031100798503306026F6
:1007600000100A0276610C1310007376E02110105D
:100770003272776F0E03100079830266F040031027
:100780000CF2E5FF504350000275F2B41310000262
:1007900073610613300079830026F064011006F0BF
:1007A000E6FF544350880046F36C13300000736139
:1007B0000201200079C50332715A1012A30263614D
:1007C0000833200003437059001463026361085327
:1007D0001000798552BBF9500010078277E2240798
:1007E00010006257FF450010405266CF24071000EA
:1007F00079435288F4A40020067298B48400500013
:100800003227B4860010052324F1104410007943E8
:100810004338F3114410032322FF84440700333785
:10082000F0724410003334FF004400407987006ABE
:10083000502E30113A0066C1600020200066611E13
:10084000031500006561143323607987025A600044
:1008500010134B0256C15C30101002665002051591
:10086000080265511C0317D879850228916C10166F
:1008700000025F701C031300032B90501013200222
:100880004F600113170079850228914C10104D021A
:10089000566018031000022880281010D802475311
:1008A0000113100079450200CF4C00603D025366F1
:1008B0005E034000023F7079001040025F50000369
:1008C000200079850300CF5030503F025376520309
:1008D00040000247736A101050025190000510004A
:1008E00079850240AF58001000025F7122031000AA
:1008F000024F9069101048025F7002133000798730
:100900004364F6003040453235C100001030626764
:10091000C0000310307267B0000300307943025802
:10092000815001100E0258A45E0130000267716A06
:10093000001000028F901811100079430276717038
:100940000110470258943E0110000277616A0110BD
:1009500008028F8014031000794302656288011039
:100960004702B8C4620110080297934601100802BA
:100970008F700003200079450270756810305002B6
:100980009D94000100100269714C115088029782F9
:1009900000011010794502097043001240027E9058
:1009A000060117000229615A301604027EA00601D2
:1009B0001340794502268158441706028F90204043
:1009C0001700025771584110660288901C411000B0
:1009D00079450286724044170602AF9028441700FA
:1009E0000286724041100602A89028411000794307
:1009F000024361700110060257979C01600832356E
:100A00007B8C011040027FF0100310007943636972
:100A1000F37410300002628068001000020580311B
:100A20001010080286810C03100079450303902AF8
:100A300044100C02928024411000030390364410AD
:100A40004C029290544110087945030370164410EB
:100A50000B0292703C4310400303702244104B027F
:100A600092703643100079450353704A0010060314
:100A7000827218032000031570391020100384714E
:100A80001405100079850240A07A03102812919075
:100A9000240330000240B26023100002A0A03803FB
:100AA000200079450240A08A0310281291912C035E
:100AB00030000240B26023100012A0A12C032000DD
:100AC00079850307C1620010080381710211304863
:100AD0000307C1620010080381710C113148794588
:100AE000031271961120070282810C11100003126B
:100AF00051691140000282710C0010007985027C5E
:100B0000A13000501702879F9C1310000275817856
:100B100010100802A580180110007945021AD11C96
:100B200010300702B873940130000298E09C311035
:100B30000702A56004111080798572A690E835201F
:100B40001F02A580101510406269A93C0170C00207
:100B5000A5809035100079850260A00120D0071291
:100B6000AAB08C21A018024F80B0152000029080FE
:100B7000142510007945037CC13000505702977648
:100B80006C0110000288732F30204002857004052C
:100B900010007945025CA1180050170297655C317E
:100BA00010400238A309500090029560040510001F
:100BB0007942026A60141510000278801455100002
:100BC000927A60B055108802786014551740798584
:100BD000728680F115201F02958000051000626961
:100BE000A93C0110C002A570681510407985027FEC
:100BF000F4BB00104002AFA00E031040022FF39B85
:100C000010204102AFA00E01104079450270F0683B
:100C1000411707027FD028411740023FF051411091
:100C2000A7028FE02841104079850274C800304047
:100C3000470266C7515440400256850D012000020C
:100C4000846108301080794502277611151440021E
:100C500086F02C1510400227760D1511400286F003
:100C60002C151240794502629222451408028192A5
:100C7000381520600262922A4511080281923815C7
:100C80002160794502004F340070300283764C01B8
:100C90002000029F7071301040028F700803100016
:100CA00079471281C1544510C01261C23C45110000
:100CB0000280C0684524001281C118453180794501
:100CC0000232B0580010080292A044031080424340
:100CD000C52E0010050293D6300010007945313F33
:100CE000F09844700D4047F02E44500000116062AF
:100CF00003170E0051810203100079450250A0A095
:100D0000011107024030080510000230A0BC011399
:100D10000702403008051200794500456188051733
:100D2000180065A10A052600003361880510DC0063
:100D300053900205124079450000AF8445174200E8
:100D400073435A05800000337085051006005F600C
:100D5000000523007945023124AA1570040252636C
:100D600000111000023124AA15710402526300110F
:100D7000120079450332F05E0010560246500E0113
:100D800015000336F31D0010020247501103110035
:100D90007945003141944415060052600201170064
:100DA0000045C178441305005280020310007945C4
:100DB0000238407810150002483002031300024147
:100DC000308A00220002527002031700794503683E
:100DD000F80B55A001132580007510800368F80BEF
:100DE00045A2011325800055138079850233634A9B
:100DF00010300302424025013000023363400010EE
:100E0000850241410E03100079451258F4514560A6
:100E1000052242C7244410001258F45145E205222D
:100E200042C724441200798522436F550010A40262
:100E300043F3000310000243CF410023A452469322
:100E40003003270079421241F51E1513585242FF14
:100E50001C1513481241F51E1511585242FF1C155E
:100E6000114879450011124A47376C00412126107C
:100E70003000002120504510040031300E45140090
:100E800079850203458800200002C2A03A031000C1
:100E90000223328C301080023FA0000310007945FD
:100EA0000233586511200A124162181117200233CB
:100EB000586511230A124162181113207945322214
:100EC000D52A4520036242FF204570483222D50EC4
:100ED0004711446242FF2045418879852313D12878
:100EE0000010203353DE020330004227F13C016042
:100EF000088287FE0203100879431031F26844101B
:100F000044506AF7504530003038F3604450804117
:100F100044FF0445304079435057F2520030468038
:100F200089F4560050802032FFA80010052122FFCE
:100F30000C4410007945526AFA214543263252C0CA
:100F4000204510005268FA394552064342C02045F8
:100F50001400794500C9B14244104900DF702C44A7
:100F600031400099A30044100000D6802844400876
:100F700079850339811E00100A0276620041100053
:100F80007376C02500202072839E66051000794587
:100F90000240A042031028129190340360000240E6
:100FA000B26023100002A0A03C0320007945304627
:100FB000F54144E0037066CE2E4420002026C5781B
:100FC0004477084055FD045460007945404AE25C8E
:100FD0004470016067F1204450006049E28444A7F6
:100FE000006067F7104420007947435442004520D1
:100FF00080324660584520004344E20045200543C6
:1010000044F2000003107945919AF286445105712B
:101010007AF200442300A08AF27044A300707AF2AE
:10102000004420007944423BF560000027A23CF1D7
:101030004C004000423CF42C013000525EF00005B0
:10104000000079458289F53A4410275253FE004446
:1010500000004343F5324400084344FE00440000CE
:1010600079C581ABE2000407620143CF00140000A0
:101070000044F7004400C00077FF004500B0794508
:10108000020F400045E007F2FF2F18259040020FA5
:10109000400045E007F2FF2F1845E0187945426807
:1010A000F20245604742A6883E4530102266F200B3
:1010B00045605182A888024560107945025CA138DC
:1010C00000501782987F14111000025CA124008048
:1010D0000772988F301110007903020FF010003062
:1010E000072222FF541000204240FF300000084237
:1010F000421F24000000798533373A56555000735B
:1011000076530155A00033373A56555000434653A5
:101110000175A70079450302B6714550153334F1C6
:101120000C4540000302B6714550153334F13C457F
:10113000470079C50206F00455F07502502010559D
:1011400000000200F0604400700250202C440000B7
:101150007945021CF0000000C70252402000000048
:1011600002106F003090C772703F1C00300079454C
:101170000203FF2C0150078286FB1011F03002029F
:10118000FF0811500F8286FB6811503000030608DB
:101190000B0E11131517191B1C1D1E1E1F1E1E1DC5
:1011A0001C1B19171513110E0B08060300FDFAF886
:1011B000F5F2EFEDEBE9E7E5E4E3E2E2E1E2E2E3B9
:1011C000E4E5E7E9EBEDEFF2F5F8FAFD00010203E3
:1011D0000405060708090A0B0C0D0E0F101011125A
:1011E000131415161718191A1B1C1D1EE1E2E3E44F
:1011F000E5E6E7E8E9EAEBECEDEEEFF0F1F1F2F32A
:10120000F4F5F6F7F8F9FAFBFCFDFEFF0002040620
:10121000080A0C0E1011131517191B1D1F1D1B1981
:10122000171513110F0E0C0A0806040200FEFCFA33
:10123000F8F6F4F2F0EFEDEBE9E7E5E3E1E3E5E7FB
:10124000E9EBEDEFF1F2F4F6F8FAFCFE0000000035
:10125000250028002B0000000000240027002A00A1
:10126000040404040404040402020202020203034C
:101270000303030301020408102040800102040854
:10128000102001020408102011241FBECFEFD8E067
:10129000DEBFCDBF11E0A0E0B1E0E8E2F0E602C0C1
:1012A00005900D92AA33B107D9F727E0AAE3B1E080
:1012B00001C01D92A831B207E1F70E9416230C94D9
:1012C00012300C940000683CCE43E041EE40764082
:1012D0003B401D400E400740034001400439D647C3
:1012E000CE43E041EE4076403B401D400E4007407B
:1012F0000340D1351B4CCA45D5426641B2405840E7
:101300002C4016400B400540CB32A250D647CE436E
:10131000E041EE4076403B401D400E400740F22F3A
:101320006E55F149CA445A422A4194404A402540E8
:1013300012400940412D825A1B4CCA45D542664194
:10134000B24058402C4016400B40B72AE45F564E3E
:10135000CE465143A341D0406740334019400C4032
:1013600051289765A250D647CE43E041EE407640E3
:101370003B401D400E400D26A26BFF52E1484C44FD
:101380001D420C418540424021401040EB23087231
:101390006E55F149CA445A422A4194404A40254078
:1013A0001240E721D078EE57044B4A459742484116
:1013B000A34051402840144000200080825A1B4C1A
:1013C000CA45D5426641B24058402C401640341EB2
:1013D0009C87295D374D4C4613438541C140604091
:1013E00030401840821CAC8FE45F564ECE465143CD
:1013F000A341D040674033401940E81A3798B362A0
:101400007A4F52478F43C141DF406F4037401B4006
:10141000651945A19765A250D647CE43E041EE40FD
:1014200076403B401D40F917DCAA9268CE515B48DC
:101430000D44FE41FD407E403E401F40A01604B5D5
:10144000A26BFF52E1484C441D420C418540424092
:1014500021405B15C8BFC96E345469498B443B4277
:101460001B418D404640234028142FCB08726E55F7
:10147000F149CA445A422A4194404A402540061341
:1014800044D76075AC567A4A0A45784239419C4047
:101490004D402640F51111E4D078EE57044B4A45F3
:1014A00097424841A34051402840F310A1F15B7C92
:1014B00036598F4B8A45B6425741AA4055402A407B
:1014C0000010FFFF0080825A1B4CCA45D54266417E
:1014D000B2402C4058401F921F931127662321F4DD
:1014E00080E090E40C94630B6A9576E1679FF001CD
:1014F000EA53FD4EA591B5916591759195FF13C085
:10150000A69F9001B79FA001A79F300D411D511FBD
:10151000B69F300D411D511F330F441F551F330F10
:10152000441F551FDA016591759194FF13C0A69F62
:101530009001B79FA001A79F300D411D511FB69F7D
:10154000300D411D511F330F441F551F330F441FD2
:10155000551FDA016591759193FF13C0A69F900105
:10156000B79FA001A79F300D411D511FB69F300DA1
:10157000411D511F330F441F551F330F441F551F6B
:10158000DA016591759192FF13C0A69F9001B79FF4
:10159000A001A79F300D411D511FB69F300D411D69
:1015A000511F330F441F551F330F441F551FDA01BE
:1015B0006591759191FF13C0A69F9001B79FA001FF
:1015C000A79F300D411D511FB69F300D411D511F6A
:1015D000330F441F551F330F441F551FDA01659108
:1015E000759190FF13C0A69F9001B79FA001A79F80
:1015F000300D411D511FB69F300D411D511F330F3E
:10160000441F551F330F441F551FDA016591759113
:1016100087FF13C0A69F9001B79FA001A79F300D21
:10162000411D511FB69F300D411D511F330F441FE7
:10163000551F330F441F551FDA016591759186FFC1
:1016400013C0A69F9001B79FA001A79F300D411D19
:10165000511FB69F300D411D511F330F441F551FA1
:10166000330F441F551FDA016591759185FF13C033
:10167000A69F9001B79FA001A79F300D411D511F4C
:10168000B69F300D411D511F330F441F551F330F9F
:10169000441F551FDA016591759184FF13C0A69F01
:1016A0009001B79FA001A79F300D411D511FB69F0C
:1016B000300D411D511F330F441F551F330F441F61
:1016C000551FDA01CD011F911F90089518952A9892
:1016D0008EBD0E94C60B6EBD0E94C60B2A9A08954D
:1016E0007BE02A987EBD0E94C60B8EBD0E94C60B71
:1016F0002A9A00002A986EBD0E94C60B4EBD0E9419
:10170000C60B2A9A0895F8949091DC027894903050
:1017100079F490918400809185009032A0F39052EA
:10172000112410928500909384000E94D00BEBCF7F
:10173000E091DB02E395E093DB02F8949091DC0208
:101740009A959093DC02FF27E65CFE4F80817894A7
:101750000895F8940F920FB60F92EF93FF93E091D4
:10176000DA02E395E093DA02FF27E65CFE4F009091
:10177000C60000820090DC0203940092DC02FF911C
:10178000EF910F900FBE0F90789418950000000015
:1017900000000000000000000000000000000895AC
:1017A0000F921F92CF93DF9320E130E02A95F90149
:1017B000E65BFD4FA081A03009F488C0A15011F074
:1017C000A08384C0E901C658DD4FA881A083488961
:1017D000A8A1A40FAF73A8A348A9B0E2E901CC0F58
:1017E000C654DD4FE991F8811124EA0FF11DA4914F
:1017F000469508F4A195AB0FAB9FF001E252F74E6E
:101800001124E40FF11D4491E901C65ADD4FA8816E
:10181000A395AF73A883A40FAF734889E901CC0FD8
:10182000C654DD4FE991F8811124EA0FF11DA4910E
:10183000459508F4A195AB0FAB9FF001E252F74E2E
:101840001124E40FF11DB4918BE02A988EBDC9E0FC
:101850002C9FE001C857D94FEB81F3E1FE9FE001D7
:10186000C85ADA4FAC85AB0FAC7F2EBD0E94C60BB9
:101870002A9A80E12A988EBD0E94C60BAEBD0E94B6
:10188000C60B2A9A82E12A988EBDAE854F85B59502
:101890004B0F40382AF0B7FDAA95B7FFA39505C0B6
:1018A0000000000000000000000000000000000038
:1018B0000000AEBD0E94C60B2A9A83E12A988EBD15
:1018C0000E94C60B4EBD0E94C60B2A9A215008F0FA
:1018D0006ECFDF91CF911F900F901124089500FFDC
:1018E000FEFDFCFBFAF9F8F7F6F5F4F3F2F1F0EF90
:1018F000EEEDECEBEAE9E8E7E6E5E4E3E2E000FF41
:10190000FEFDFCFBFAF9F8F7F6F5F4F3F2F1F0EF6F
:10191000EEEDECEBEAE9E8E7E6E5E4E3E2E100001E
:10192000FFFEFDFCFBFAF9F8F7F6F5F4F3F2F1F03F
:10193000EFEEEDECEBEAE9E8E7E6E5E4E3E20000F0
:10194000FFFEFDFCFBFAF9F8F7F6F5F4F3F2F2F11D
:10195000F0EFEEEDECEBEAE9E8E7E6E5E4E30000C2
:10196000FFFEFDFCFBFAF9F8F7F7F6F5F4F3F2F1F8
:10197000F0EFEEEEEDECEBEAE9E8E7E6E5E4000097
:10198000FFFEFDFCFBFAFAF9F8F7F6F5F4F3F3F2D3
:10199000F1F0EFEEEDECECEBEAE9E8E7E6E500006C
:1019A000FFFEFDFCFBFBFAF9F8F7F6F6F5F4F3F2AF
:1019B000F1F1F0EFEEEDECECEBEAE9E8E7E6000040
:1019C000FFFEFDFCFCFBFAF9F8F8F7F6F5F4F4F38A
:1019D000F2F1F0F0EFEEEDECECEBEAE9E8E7000015
:1019E000FFFEFDFDFCFBFAFAF9F8F7F6F6F5F4F365
:1019F000F3F2F1F0EFEFEEEDECECEBEAE9E80000EA
:101A0000FFFEFEFDFCFBFBFAF9F8F8F7F6F5F5F43E
:101A1000F3F2F2F1F0EFEFEEEDECECEBEAE90000BF
:101A2000FFFEFEFDFCFCFBFAF9F9F8F7F7F6F5F41A
:101A3000F4F3F2F2F1F0EFEFEEEDEDECEBEA000093
:101A4000FFFEFEFDFCFCFBFAFAF9F8F8F7F6F6F5F6
:101A5000F4F4F3F2F2F1F0F0EFEEEEEDECEB000067
:101A6000FFFFFEFDFDFCFBFBFAF9F9F8F7F7F6F6D0
:101A7000F5F4F4F3F2F2F1F0F0EFEEEEEDEC00003D
:101A8000FFFFFEFDFDFCFCFBFAFAF9F9F8F7F7F6AB
:101A9000F5F5F4F4F3F2F2F1F1F0EFEFEEED000012
:101AA000FFFFFEFEFDFCFCFBFBFAFAF9F8F8F7F786
:101AB000F6F5F5F4F4F3F3F2F1F1F0F0EFEE0000E7
:101AC000FFFFFEFEFDFDFCFCFBFAFAF9F9F8F8F762
:101AD000F7F6F6F5F4F4F3F3F2F2F1F1F0EF0000BB
:101AE000FFFFFEFEFDFDFCFCFBFBFAFAF9F9F8F83E
:101AF000F7F7F6F6F5F5F4F4F3F3F2F2F1F000008F
:101B000000FFFFFEFEFDFDFCFCFBFBFAFAF9F9F815
:101B1000F8F7F7F6F6F5F5F4F4F3F3F2F2F1000066
:101B200000FFFFFEFEFDFDFCFCFCFBFBFAFAF9F9F1
:101B3000F8F8F7F7F7F6F6F5F5F4F4F3F3F200003A
:101B400000FFFFFEFEFEFDFDFCFCFBFBFBFAFAF9CD
:101B5000F9F9F8F8F7F7F6F6F6F5F5F4F4F300000E
:101B600000FFFFFFFEFEFDFDFDFCFCFBFBFBFAFAA8
:101B7000FAF9F9F8F8F8F7F7F6F6F6F5F5F40000E3
:101B800000FFFFFFFEFEFEFDFDFDFCFCFCFBFBFA83
:101B9000FAFAF9F9F9F8F8F8F7F7F7F6F6F50000B8
:101BA0000000FFFFFFFEFEFEFDFDFDFCFCFCFBFB5D
:101BB000FBFAFAFAF9F9F9F8F8F8F7F7F7F600008E
:101BC0000000FFFFFFFEFEFEFEFDFDFDFCFCFCFC39
:101BD000FBFBFBFAFAFAFAF9F9F9F8F8F8F7000062
:101BE0000000FFFFFFFFFEFEFEFEFDFDFDFDFCFC15
:101BF000FCFCFBFBFBFBFAFAFAFAF9F9F9F8000036
:101C0000000000FFFFFFFFFEFEFEFEFEFDFDFDFDEE
:101C1000FCFCFCFCFCFBFBFBFBFAFAFAFAF900000B
:101C200000000000FFFFFFFFFFFEFEFEFEFEFDFDC9
:101C3000FDFDFDFCFCFCFCFCFBFBFBFBFBFA0000E0
:101C40000000000000FFFFFFFFFFFFFEFEFEFEFEA4
:101C5000FEFDFDFDFDFDFDFCFCFCFCFCFCFB0000B5
:101C6000000000000000FFFFFFFFFFFFFFFFFEFE80
:101C7000FEFEFEFEFEFEFDFDFDFDFDFDFDFC000089
:101C8000000000000000000000FFFFFFFFFFFFFF5B
:101C9000FFFFFFFEFEFEFEFEFEFEFEFEFEFD00005E
:101CA0000000000000000000000000000000FFFF36
:101CB000FFFFFFFFFFFFFFFFFFFFFFFFFFFE000033
:101CC0000000000000000000000000000000000014
:101CD00000000000000000000000000000FF000005
:101CE00000000000000000000000000000000000F4
:101CF00000000000000000000000000000000000E4
:101D000000000000000000000000000000000000D3
:101D100000000000000000000000000000010000C2
:101D200000000000000000000000000000000101B1
:101D30000101010101010101010101010102000094
:101D4000000000000000000000010101010101018C
:101D50000101010202020202020202020203000069
:101D60000000000000000101010101010101020267
:101D7000020202020202030303030303030400003E
:101D80000000000000010101010101020202020243
:101D90000203030303030304040404040405000012
:101DA000000000000101010101020202020203031E
:101DB00003030304040404040505050505060000E7
:101DC00000000001010101020202020203030303F9
:101DD00004040404040505050506060606070000BC
:101DE00000000101010102020202030303030404D3
:101DF0000404050505050606060607070708000092
:101E000000000101010202020203030304040404AE
:101E10000505050606060607070708080809000065
:101E2000000001010102020203030304040405058A
:101E3000050606060707070808080909090A000039
:101E40000001010102020203030304040405050664
:101E500006060707070808080909090A0A0B00000F
:101E6000000101010202030303040405050506063F
:101E700006070708080809090A0A0A0B0B0C0000E4
:101E8000000101020202030304040505050606071A
:101E90000707080809090A0A0A0B0B0C0C0D0000B9
:101EA00000010102020303040404050506060707F6
:101EB00008080909090A0A0B0B0C0C0D0D0E00008D
:101EC00000010102020303040405050606070708D2
:101ED0000809090A0A0B0B0C0C0D0D0E0E0F000061
:101EE00001010202030304040505060607070808AA
:101EF00009090A0A0B0B0C0C0D0D0E0E0F10000039
:101F00000101020203030404050606070708080985
:101F1000090A0A0B0C0C0D0D0E0E0F0F101100000C
:101F20000101020203040405050606070808090961
:101F30000A0B0B0C0C0D0D0E0F0F101011120000E0
:101F40000101020303040405060607070809090A3C
:101F50000B0B0C0C0D0E0E0F0F10111112130000B5
:101F600001010203030405050607070809090A0A17
:101F70000B0C0C0D0E0E0F1010111212131400008A
:101F8000010202030404050606070808090A0A0BF1
:101F90000C0C0D0E0E0F1010111212131415000060
:101FA000010202030404050607070809090A0B0CCD
:101FB0000C0D0E0E0F101111121313141516000034
:101FC0000102020304050506070808090A0B0B0CA9
:101FD0000D0E0E0F10111112131414151617000008
:101FE00001020303040506060708090A0A0B0C0D83
:101FF0000D0E0F10111112131414151617180000DE
:1020000001020304040506070808090A0B0C0C0D5D
:102010000E0F1010111213141415161718190000B2
:10202000010203040505060708090A0A0B0C0D0E38
:102030000F0F10111213141415161718191A000087
:10204000010203040506060708090A0B0C0D0D0E14
:102050000F10111213141415161718191A1B00005B
:10206000010203040506070809090A0B0C0D0E0FEF
:1020700010111212131415161718191A1B1C000030
:102080000102030405060708090A0B0C0D0E0E0FCA
:10209000101112131415161718191A1B1C1D000005
:1020A0000102030405060708090A0B0C0D0E0F10A8
:1020B0001112131415161718191A1B1C1D1E0001D6
:1020C00002030405060708090A0B0C0D0E0F101178
:1020D00012131415161718191A1B1C1D1E1F819197
:1020E0008EBD8491849100000895849184910000B4
:1020F000000008950F931F93CF93DF9323E1829FF6
:10210000C0011124FC01E85AFA4F6487C089D189C3
:10211000209771F0062F10E08881A80160E170E03F
:1021200090E00E94700B0E80DF81C02D2097A1F7F8
:10213000DF91CF911F910F9108950F931F93CF932C
:10214000DF9323E1829FC0011124FC01E85AFA4F7A
:102150006487C089D189209771F0062F10E08881AB
:10216000A80160E170E090E00E94700B0E80DF81BA
:10217000C02D2097A1F7DF91CF911F910F91089566
:102180000F931F93CF93DF9323E1829FC00111240C
:10219000FC01E85AFA4F6587C089D189209771F010
:1021A000062F10E08881A80161E170E090E00E94B4
:1021B000700B0E80DF81C02D2097A1F7DF91CF91AA
:1021C0001F910F910895F89460E08FE00E94670BD3
:1021D00078940895CF93DF93D82FC62FF89460E0BA
:1021E0008BE00E94670B64E58CE00E94670B6D2F0B
:1021F0008DE00E94670B6C2F8EE00E94670B60E4FD
:102200008FE00E94670B7894DF91CF9108950F9330
:102210001F93CF93DF938C01C62F809100018130F3
:1022200009F465C0833061F0F801ED5CFC4F8081FA
:10223000861709F445C0DF91CF911F910F91089542
:1022400008301105C4F7A8015527E3E10E9FC0012E
:102250001124FC01E85AFA4FA089B189109789F03E
:1022600012962C911297621306C0E1C08281C817A2
:1022700009F491C0DF011696ED91FC911797309704
:10228000A9F7085F202F30E0F3E10F9F80011124B0
:10229000F801E85AFA4FA089B189109761F21296B5
:1022A0008C911297C81305C0BDC08281C817F1F187
:1022B000DF011696ED91FC9117973097B1F7BBCFE0
:1022C000C8019927FC01EE0FFF1FEE0FFF1FEE0F55
:1022D000FF1FE80FF91FE857F94F418150E06FE009
:1022E00070E0DF91CF911F910F910C94700B9801CA
:1022F000332783E1089F80011124F801E85AFA4F3F
:10230000A089B189109709F496CF12968C911297F3
:10231000681305C087C08281C81741F0DF01169697
:10232000ED91FC9117973097B1F785CFED01269687
:1023300083E1829FD001839FB00D1124A85ABA4F28
:1023400011968C91813011F13081832F90E046817C
:10235000578159834883E091DE0221E02E0F2093BC
:10236000DE02F0E0E65CFD4F3083203189F0209101
:102370006403309165032150310930936503209344
:1023800064038F3F910509F09DCF55CF858353CFCF
:102390001092DE02ECCF9D012A5F3F4F83E1849FC4
:1023A000D001859FB00D1124A85ABA4F11968C9177
:1023B0008130B1F14081842F90E066817781F9010D
:1023C00071836083E091DE0221E02E0F2093DE0214
:1023D000F0E0E65CFD4F4083203111F41092DE0204
:1023E00020916403309165032150310930936503D6
:1023F000209364038F3F910509F443CFFC01EE0F56
:10240000FF1FEE0FFF1FEE0FFF1FE80FF91FE8572A
:10241000F94F418150E06FE070E00E94700B31CFC6
:1024200085832FCFE801C859DA4FFD0181CF9C0188
:1024300028593A4FFD01B2CFAF92BF92CF92DF92AF
:10244000EF92FF920F93CF93DF931F92CDB7DEB73A
:10245000E42EA62FB0E0FD01ED5CFC4F4083FD01B2
:10246000EE0FFF1FEE0FFF1FEE0FFF1FEA0FFB1F08
:10247000AF014857594F6A01402F50E04D5D5C4F06
:10248000FA019081F6019087AD0146595D4F5A01DE
:1024900053E1859FC0011124FC01E85AFA4F6F01F6
:1024A0008381F5018083FD01E656FD4F1082AD0169
:1024B00046575D4FF6018481FA018083AD01465590
:1024C0005D4FF6018581FA018083FD01EE0FFF1F4C
:1024D000AF0146545D4FF60186819781FA019183E1
:1024E0008083A658BD4FF60182818C937F93AF9372
:1024F000BF93EF93FF93A62FB0E0A65BBD4FE82FED
:10250000F0E0E85AFA4F72897C93A62FB0E0A65A01
:10251000BD4F762F73707C93FF91EF91BF91AF9178
:102520007F918BE029830E94670B2981622F6C7752
:102530008CE00E94670BF12CF701E45FFD4F649182
:102540008DE00E94670BF701E457FE4F64918EE027
:102550000E94670BF601648580E10E94670BF6011B
:10256000658581E10E94670BF601668582E10E9424
:10257000670BF601678583E10E94670B602F60643B
:102580008FE00F90DF91CF910F91FF90EF90DF9050
:10259000CF90BF90AF900C94670B909322038093E1
:1025A00021038EE180932003E1ECF0E080818062E2
:1025B000808308951F920F920FB60F9211248F936C
:1025C0009F93EF93FF93E0912103F0912203808189
:1025D0008093C600809121039091220301969093ED
:1025E00022038093210380E18A95F1F780912003F3
:1025F000815080932003811105C08091C1008F7D9F
:102600008093C100FF91EF919F918F910F900FBE2A
:102610000F901F901895CF93DF9388E066E1F894B0
:102620000E94670B789488E060E0F8940E94670B42
:1026300078942A988EB587E08EBD0E94751080E947
:102640008EBD0E947510F3E0E6E60E946F100E94B6
:102650006F100E946F100E946F100E946F100E94F6
:102660006F100E946F100E946F100E946F100E94E6
:102670006F100E946F100E946F100E946F100E94D6
:102680006F100E946F100E946F100E946F100E94C6
:102DC0006F100E946F100E946F1000C000C000C002
:102DD00080E88EBD0E94751083E08EBD0E94751044
:102DE00081E88EBD8DB587FFFDCF80E88EBD8DB5A6
:102DF00087FFFDCF8EB52A9AA3E2B3E040E050E012
:102E0000EA01CA59DC4F69816770062E000C770B06
:102E1000FB01EE5CFE4F9081992381F12FEF660F4D
:102E2000771F660F771F9150FB01E90FF11D97FD8A
:102E3000FA95EE5EFE4F8081FE0137E08302E00DE1
:102E4000F11D11248381807F82170CF4282F9111AA
:102E5000EACFE22FE595E595E595E5950E2E000C78
:102E6000FF0BEE5FFE4F80818D93425E5F4F403ED1
:102E700081E0580729F6DF91CF910895EFEFFFEF3A
:102E8000F0CF87E0689FF0011124E759FC4F808163
:102E90008F70403108F04FE090E1499FA00111246C
:102EA000482B40830C940B1323E1829FC001112413
:102EB000FC01E85AFA4FE0818EE1E802F0011124AA
:102EC00027E0629FE00DF11D1124E359FC4F808142
:102ED00081110C940B13887F483020F4482B4083D9
:102EE0000C940B1347E0482B4083FACF23E1829FD9
:102EF000C0011124FC01E85AFA4FE0818EE1E8029A
:102F0000F001112427E0629FE00DF11D1124E55925
:102F1000FC4F80818370403408F04FE3440F440F2E
:102F2000482B40830C940B13AF92BF92DF92EF9229
:102F3000FF920F931F93CF93DF93D42FD22E803B1A
:102F400009F4B2C008F5803809F49FC0803991F4C3
:102F5000C62FCF70AC2EB12C222309F4E7C4809188
:102F60000001813009F412C6833009F0A8C4C830CA
:102F700008F4FAC0DF91CF911F910F91FF90EF906D
:102F8000DF90BF90AF900895803C09F49CC0803ED4
:102F900089F76F70B62E262F30E0909100019130A6
:102FA00009F4B7C5933009F0A6C0E7E0E61710F3BF
:102FB000F0E8DF9E70011124E42A83E1829FE001A2
:102FC000839FD00D1124C85ADA4F6A85C7010E9429
:102FD0006B0A192F1695169516951E879595879548
:102FE0009595879595958795959587958F77992749
:102FF000082F8F870888D989C02D209789F068818C
:103000008BE00E94670B612F82E10E94670B602FAB
:1030100083E10E94670B0E80DF81C02D209779F736
:1030200068E06B0D23E1629FE0011124C85ADA4F7A
:103030006A85C7010E946B0A192F16951695169579
:103040001E879595879595958795959587959595DF
:1030500087958F779927082F8F870888D989C02D62
:10306000209709F487CF68818BE00E94670B612F5E
:1030700082E10E94670B602F83E10E94670B0E8044
:10308000DF81C02D209779F775CF862F8F70642F41
:1030900090E0DF91CF911F910F91FF90EF90DF9023
:1030A000BF90AF900C940711C62FCF708C2F90E07B
:1030B000042F10E00A37110508F05CCFF801EC5C32
:1030C000FF4F0C940530862F8F70282F30E09091A1
:1030D0004605913009F401C4923009F42AC483E111
:1030E000829FD001839FB00D1124A85ABA4FE42FBC
:1030F000EF70EC933FCF83E1829FD001839FB00DAF
:103100001124A85ABA4F3D2D20E83203C0011124E2
:10311000E42F440FFF0B1A966C918E2B9F2B0E946D
:103120006B0AEC016B2D8BE00E94670B6D2F66958F
:103130006695669582E10E94670BBE01759567955D
:103140007595679575956795759567956F777727E9
:1031500083E1DF91CF911F910F91FF90EF90DF906E
:10316000BF90AF900C94670B83E18A9DF0018B9D1B
:10317000F00D1124E85AFA4FE088F188E114F104C7
:1031800041F4F8C3F701E680F780E114F10409F493
:10319000F1C3F7018281D813F5CF808190E0FC0163
:1031A000EE0FFF1FEE0FFF1FEE0FFF1FE80FF91FBF
:1031B000E857F94F418150E0405E5F4F6FE070E0AB
:1031C0000E94700BDFCFFC01EC5BFC4F2083FC0105
:1031D000EC5AFC4F20812111CDCEFC01EC5BFC4F61
:1031E00020812111C7CE23E1289FF001299FF00DF6
:1031F0001124E85AFA4FD28630910001333009F099
:10320000B9CEC83008F0B6CE0896289FF001299FA5
:10321000F00D1124E85AFA4FD286ACCED294DFE0FA
:10322000DD2220910001213009F4BAC5233009F0D4
:1032300064C5C83008F09ECE6D2D8C2F0E94C01042
:103240006D2D88E08C0FDF91CF911F910F91FF9032
:10325000EF90DF90BF90AF900C94C010422F43705E
:103260004093460587CE422F50E063E070E0DF9147
:10327000CF911F910F91FF90EF90DF90BF90AF9093
:103280000C944117422F50E060E070E0DF91CF9145
:103290001F910F91FF90EF90DF90BF90AF900C9433
:1032A000541723E1289FF001299FF00D1124E85ABB
:1032B000FA4FD5825FCE23E1289FF001299FF00DC0
:1032C0001124E85AFA4FD48255CE422F50E062E0E2
:1032D00070E0DF91CF911F910F91FF90EF90DF9001
:1032E000BF90AF900C947617422F50E061E070E0F1
:1032F000F0CF422F50E060E070E0EBCF422F4695D8
:10330000469523E1289FF001299FF00D1124E85AEA
:10331000FA4F4187E085F0E030E2439FE00DF11D78
:103320001124E252F34E4491D42FDD0FDD0F209192
:103330000001213009F42EC5233009F09AC4C830A9
:1033400008F018CE6D2F8C2F0E947A106D2F88E018
:103350008C0FDF91CF911F910F91FF90EF90DF9035
:10336000BF90AF900C947A10422F4695469523E17A
:10337000289FF001299FF00D1124E85AFA4F408749
:10338000E185F0E0D0E24D9FE00DF11D1124E25205
:10339000F34E4491D42FDD0FDD0F20910001213039
:1033A00009F4FBC4233009F064C4C83008F0E2CD4E
:1033B0006D2F8C2F0E949D106D2F88E08C0FDF9158
:1033C000CF911F910F91FF90EF90DF90BF90AF9042
:1033D0000C949D10422F50E062E070E048CFE1E095
:1033E0002E1709F4BEC4F2E02F1709F4B7C42CE875
:1033F00031E143E1489FF001499FF00D1124E85A63
:10340000FA4F37832683B6CD4091430314160CF050
:10341000B1CD042E000C550B20E030E080E093E1AC
:10342000929FF001939FF00D1124E85AFA4FD58234
:103430008F5F282F30E02417350794F39BCD409100
:10344000430314160CF096CD042E000C550B20E00F
:1034500030E080E093E1929FF001939FF00D112402
:10346000E85AFA4FD4828F5F282F30E024173507AF
:1034700094F380CD23E1289FF001299FF00D1124C2
:10348000E85AFA4FD38276CD4091430314160CF0DC
:1034900071CD042E000C550B20E030E080E093E16C
:1034A000929FF001939FF00D1124E85AFA4FD382B6
:1034B0008F5F282F30E02417350794F35BCD422F20
:1034C00050E063E070E0E2CE422F50E062E070E056
:1034D000DDCE422F50E061E070E0D8CE23E1289F9E
:1034E000F001299FF00D1124E85AFA4FD28242CD03
:1034F000211102C0DD24D39423E1289FF001299FEC
:10350000F00D1124E85AFA4FD28A34CD422F50E000
:1035100060E070E0ACCEFC01EC5AFC4F20832ACD79
:10352000422F50E061E070E0A2CE23E1289FE0014D
:10353000299FD00D1124FE01E85AFA4F1182C85973
:10354000DA4FE881F981309709F414CD8581813013
:1035500009F4A1C3EF012696E881F9813097B1F70C
:1035600009CD09E816E0C0E0D0E0F801408150E064
:10357000405E5F4F6FE070E0CE010E94700B2196BD
:10358000075F1F4FC031D10581F71092DD02109205
:10359000DE02109265031092640310928806109266
:1035A00089062FE720938B069FEF90938A0680E28F
:1035B00080938C0610928F0610928E0610929006C1
:1035C00010923A0231E030939106309392062093A4
:1035D0009406909393068093950610929806109205
:1035E00097061092990630933B0232E030939A0688
:1035F00030939B0620939D0690939C0680939E0695
:103600001092A1061092A0061092A20630933C02DE
:1036100033E03093A3063093A4062093A60690933C
:10362000A5068093A7061092AA061092A9061092EA
:10363000AB0630933D0234E03093AC063093AD06D8
:103640002093AF069093AE068093B0061092B30617
:103650001092B2061092B40630933E0235E03093D9
:10366000B5063093B6062093B8069093B7068093BC
:10367000B9061092BC061092BB061092BD0630939C
:103680003F0236E03093BE063093BF062093C1065A
:103690009093C0068093C2061092C5061092C4068D
:1036A0001092C6063093400237E03093C70630933D
:1036B000C8062093CA069093C9068093CB06109241
:1036C000CE061092CD061092CF063093410238E01C
:1036D0003093D0063093D1062093D3069093D20630
:1036E0008093D4061092D7061092D6061092D80670
:1036F0003093420239E03093D9063093DA062093B2
:10370000DC069093DB068093DD061092E0061092B3
:10371000DF061092E106309343023AE03093E2066E
:103720003093E3062093E5069093E4068093E60643
:103730001092E9061092E8061092EA0630934402CD
:103740003BE03093EB063093EC062093EE0690932B
:10375000ED068093EF061092F2061092F106109299
:10376000F306309345023CE03093F4063093F506BF
:103770002093F7069093F6068093F8061092FB06C6
:103780001092FA061092FC06309346023DE0309308
:10379000FD063093FE06209300079093FF0680936A
:1037A0000107109204071092030710920507309347
:1037B00047023EE03093060730930707209309073E
:1037C0009093080780930A0710920D0710920C0738
:1037D00010920E07309348023FE030930F0730936A
:1037E00010072093120790931107809313071092EC
:1037F0001607109215071092170730934902A8E593
:10380000B5E0E7E6F5E03AE6A32E35E0B32E80E03A
:103810004CE851E167E1E62E7AE0F72E04E098E10A
:1038200012E070E368E0C5E0DC2E8C939F012E501F
:103830003109E90118822F5F3F4FE901E8822F5FCC
:103840003F4FE901F8822F5F3F4FE90118822F5F58
:103850003F4FE901088317965C934E9316972D5FAF
:103860003F4FE90198832F5F3F4FE90198832F5F16
:103870003F4FE9011883128211822E5F3F4FE90109
:1038800078832F5F3F4FE90118822F5F3F4FE90197
:1038900068831082E501D8828F5F53967396D3E1D7
:1038A000AD0EB11C803109F6DF91CF911F910F91C0
:1038B000FF90EF90DF90BF90AF900C947B2083E15E
:1038C0008A9DF0018B9DF00D1124E85AFA4F00817A
:1038D0006C2F8C2F0E941C124DCB93E1929FF00114
:1038E000939FF00D1124E85AFA4F80832EE1429FF6
:1038F000F0011124E457FD4F3EE1839FC0011124E4
:10390000DC01AA59BC4F8C579C4F24912D933196C2
:10391000A817B907D1F7DF91CF911F910F91FF90B1
:10392000EF90DF90BF90AF900C940B13642FC50104
:10393000B0CBE42FEF7190E2E99F80011124CEE13A
:103940008C9FC0011124EC01CA59DC4FFC01EC57DB
:10395000FC4F7F0106561340081B190BF999FECF47
:10396000C8018C0F9D1F0E94EF2F8993CE15DF0594
:10397000A9F7D1CF809164039091650380319105BF
:1039800009F4C0C1E091DD0221E02E0F2093DD0299
:10399000F0E0E65CFD4FE080203109F464C101965F
:1039A0009093650380936403F12CF701EE0FFF1FE2
:1039B000EE0FFF1FEE0FFF1FEE0DFF1DE857F94F33
:1039C00083E18A9DD0018B9DB00D1124A85ABA4F76
:1039D0008C918183D283C383D48250968D919C91A4
:1039E00051979783868315825196FC93EE93509757
:1039F00073E1F72EFA9CF001FB9CF00D1124E85ABC
:103A0000FA4F00812D2D4D2F6E2D8C2F0E941C12F0
:103A1000C85F0C2F10E0F09EF001F19EF00D112414
:103A2000E85AFA4FE088F188E114F10439F420C033
:103A3000F701E680F780E114F104D1F0F70182810B
:103A4000D813F6CF808190E0FC01EE0FFF1FEE0F40
:103A5000FF1FEE0FFF1FE80FF91FE857F94F4181D5
:103A600050E0405E5F4F6FE070E00E94700BE0CF6F
:103A700080916403909165038031910509F458C1E8
:103A8000E091DD0221E02E0F2093DD02F0E0E65C04
:103A9000FD4FE080203109F4E9C001969093650361
:103AA00080936403F12CF701EE0FFF1FEE0FFF1F51
:103AB000EE0FFF1FEE0DFF1DE857F94F83E1809FCA
:103AC000D001819FB00D1124A85ABA4F8C918183E7
:103AD000D283C383D48250968D919C9151979783C2
:103AE000868315825196FC93EE935097F8E0AF0EC3
:103AF000B11C83E18A9DF0018B9DF00D1124E85AE1
:103B0000FA4F00812D2D4D2F6E2D8C2F0E941C12EF
:103B100031CA43E1429FC001439F900D11249C0193
:103B2000285A3A4F790130E8D39EC0011124F70199
:103B300062858D2B0E946B0A192F16951695169586
:103B4000E7011E8795958795959587959595879516
:103B5000959587958F779927082F8F870888D9891A
:103B6000C02D209709F406CA68818BE00E94670B7C
:103B7000612F82E10E94670B602F83E10E94670B37
:103B80000E80DF81C02D209779F7F4C983E18A9DEB
:103B9000F0018B9DF00D1124E85AFA4F008911892C
:103BA0000115110539F420C0F801068117810115AE
:103BB0001105D1F0F8018281D813F6CF808190E011
:103BC000FC01EE0FFF1FEE0FFF1FEE0FFF1FE80FB0
:103BD000F91FE857F94F418150E0405E5F4F6FE0B9
:103BE00070E00E94700BE0CF8091640390916503B8
:103BF0008031910509F4B8C0E091DD0221E02E0F7B
:103C00002093DD02F0E0E65CFD4FE080203109F416
:103C10003FC001969093650380936403F12CF701F4
:103C2000EE0FFF1FEE0FFF1FEE0FFF1FEE0DFF1D2C
:103C3000E857F94F83E18A9DD0018B9DB00D112487
:103C4000A85ABA4F8C918183D283C383D482509671
:103C50008D919C9151979783868315825196FC9301
:103C6000EE93509746CF1092DD0299CE1092DD026E
:103C700014CF4D2F50E060E170E0DF91CF911F91A4
:103C80000F91FF90EF90DF90BF90AF900C94700B6E
:103C90001092DD02BECF1081812F90E0FC01EE0F6B
:103CA000FF1FEE0FFF1FEE0FFF1FE80FF91FE85772
:103CB000F94F418150E06FE070E00E94700BE881A5
:103CC000F9818681978199838883E091DE0281E082
:103CD0008E0F8093DE02F0E0E65CFD4F10838031B2
:103CE00011F41092DE0280916403909165030197B4
:103CF000909365038093640324CC4D2D50E061E1E3
:103D000070E0BBCFE090DD02F12CF701EE0FFF1F5A
:103D1000EE0FFF1FEE0FFF1FEE0DFF1DE857F94FCF
:103D2000418150E06FE070E0C7010E94700B60CEEF
:103D3000E090DD02F12CF701EE0FFF1FEE0FFF1FE9
:103D4000EE0FFF1FEE0DFF1DE857F94F418150E0C8
:103D50006FE070E0C7010E94700BC8CE2CEC31E11F
:103D600048CB2CE032E145CBE090DD02F12CF701AD
:103D7000EE0FFF1FEE0FFF1FEE0FFF1FEE0DFF1DDB
:103D8000E857F94F418150E06FE070E0C7010E94B1
:103D9000700BAFCE6D2F8C2FDCCA6D2F8C2F0FCBFD
:103DA0006D2D8C2F50CA2F923F924F925F926F923F
:103DB0007F928F929F92AF92BF92CF92DF92EF92BB
:103DC000FF920F931F93CF93DF93CDB7DEB760972A
:103DD0000FB6F894DEBF0FBECDBF29982FEF81EE4E
:103DE00094E0215080409040E1F700C00000299A03
:103DF000EFE3FCE93197F1F700C0000029982A9A17
:103E00002A9AFFEF21EE84E0F15020408040E1F754
:103E100000C00000F89460E08DE10E94670B6EE046
:103E200082E00E94670B7894EFE9FFE03197F1F7A9
:103E300000C00000F89461E080E00E94670B60E041
:103E400081E00E94670B63EA8AE10E94670B789425
:103E50008FE99FE00197F1F700C00000F89460E05F
:103E60008AE10E94670B78949FEFE6E7F1E09150BA
:103E7000E040F040E1F700C00000F89460E082E02C
:103E80000E94670B6CEA89E10E94670B6FE38BE18C
:103E90000E94670B60E08BE10E94670B60E084E1A9
:103EA0000E94670B61E083E00E94670B66EF88E089
:103EB0000E94670B78942FE786E091E021508040C4
:103EC0009040E1F700C00000F89460E088E00E94B4
:103ED000670B60ED89E00E94670B60E08BE00E9459
:103EE000670B60E487E10E94670B60E088E10E9455
:103EF000670B6FE080E20E94670B7894E5E3EA9538
:103F0000F1F70000F8946FE081E20E94670B78946B
:103F1000F5E3FA95F1F70000F8946FE082E20E9471
:103F2000670B789425E32A95F1F70000789486E6EC
:103F300093E0988B8F87E7E6F3E0FC87EB8788E6D2
:103F400093E09A878987E9E6F3E0F887EF838AE6CA
:103F500093E09E838D83EBE6F3E0FC83EB838CE6BA
:103F600093E09A8389838DE6882E83E0982E9EE6DF
:103F7000A92E93E0B92E2FE633E040E7242E43E04C
:103F8000342E51E7C52E53E0D52E62E7E62E63E0CE
:103F9000F62E03E713E0612C712C70E1472EE0E46C
:103FA0005E2E40E050E064E170E0C3012D873E8763
:103FB0000E94700B81E0EF85F889808383E8EB85B0
:103FC000FC858083E985FA8510828FE7EF81F8858B
:103FD000808384EFED81FE8180838BEBEB81FC811C
:103FE0008083E981FA811082F4014082F5015082D8
:103FF0002D853E85F90110828FEAF101808380EAE8
:10400000F60180838EE0F701808383E0F8018083EE
:10401000EF85F88946865786108A8FE2818B93EF69
:10402000928B8BE9838B148A80E2858B81E4868B6B
:10403000178A8FE7808F90EA918F8EE0828F91E0D0
:10404000938F448E558EEFEF6E1A7E0A8F85988976
:104050004E96988B8F87EB85FC857E96FC87EB8749
:1040600089859A854E969A878987EF81F8857E960D
:10407000F887EF838D819E814E969E838D83EB81A1
:10408000FC817E96FC83EB8389819A814E969A838C
:1040900089839EE1890E911CEEE1AE0EB11C225E79
:1040A0003F4FFEE12F0E311C8EE1C80ED11C9EE168
:1040B000E90EF11C025E1F4FE0E16E16710409F07B
:1040C00070CF60960FB6F894DEBF0FBECDBFDF9104
:1040D000CF911F910F91FF90EF90DF90CF90BF9005
:1040E000AF909F908F907F906F905F904F903F9098
:1040F0002F900C940B13AF92BF92DF92EF92FF922E
:104100000F931F93CF93DF9340E150E06FE770E090
:1041100084E593E00E940B3040E150E06FE770E0EF
:1041200084E493E00E940B3040E150E063E070E0F3
:104130008AE692E00E940B3040E150E068E270E0D5
:104140008AE792E00E940B3080E1EAE4F2E0DF01CE
:10415000C82F1D92CA95E9F7EAE5F2E0DF01C82F02
:104160001D92CA95E9F7EAE9F2E0DF011D928A950E
:10417000E9F740E150E061E070E08AE892E00E94F7
:104180000B3040E150E065E070E08AEA92E00E9486
:104190000B302CE831E13093BB022093BA0230930C
:1041A000BD022093BC023093BF022093BE02309325
:1041B000C1022093C0023093C3022093C202309305
:1041C000C5022093C4023093C7022093C6023093E5
:1041D000C9022093C8023093CB022093CA023093C5
:1041E000CD022093CC023093CF022093CE023093A5
:1041F000D1022093D0023093D3022093D202309385
:10420000D5022093D4023093D7022093D602309364
:10421000D9022093D8021092DD021092DE02109291
:1042200065031092640310928806109289064FE786
:1042300040938B069FEF90938A0680E280938C06D2
:1042400010928F0610928E061092900610923A02EB
:1042500051E05093910650939206409394069093A8
:1042600093068093950610929806109297061092E6
:10427000990650933B0252E050939A0650939B0646
:1042800040939D0690939C0680939E061092A106F3
:104290001092A0061092A20650933C0253E0509355
:1042A000A3065093A4064093A6069093A506809378
:1042B000A7061092AA061092A9061092AB06509378
:1042C0003D0254E05093AC065093AD064093AF06C8
:1042D0009093AE068093B0061092B3061092B20689
:1042E0001092B40650933E0255E05093B506509399
:1042F000B6064093B8069093B7068093B90610921D
:10430000BC061092BB061092BD0650933F0256E0C9
:104310005093BE065093BF064093C1069093C006CB
:104320008093C2061092C5061092C4061092C6066B
:104330005093400257E05093C7065093C8064093ED
:10434000CA069093C9068093CB061092CE061092AF
:10435000CD061092CF065093410258E05093D006FC
:104360005093D1064093D3069093D2068093D406FF
:104370001092D7061092D6061092D8065093420299
:1043800059E05093D9065093DA064093DC06909397
:10439000DB068093DD061092E0061092DF06109295
:1043A000E106509343025AE05093E2065093E3062D
:1043B0004093E5069093E4068093E6061092E906A2
:1043C0001092E8061092EA06509344025BE0509384
:1043D000EB065093EC064093EE069093ED06809327
:1043E000EF061092F2061092F1061092F306509327
:1043F00045025CE05093F4065093F5064093F706AF
:104400009093F6068093F8061092FB061092FA0637
:104410001092FC06509346025DE05093FD065093C7
:10442000FE06409300079093FF06809301071092C9
:1044300004071092030710920507509347025EE0AD
:104440005093060750930707409309079093080776
:1044500080930A0710920D0710920C0710920E0716
:10446000509348025FE050930F075093100740931A
:10447000120790931107809313071092160710925A
:1044800015071092170750934902A8E5B5E0E7E633
:10449000F5E08AE6A82E85E0B82E80E097E1E92EC7
:1044A0004AE0F42E04E098E112E070E368E055E0A1
:1044B000D52E8C93AF014E505109EA0118824F5FFF
:1044C0005F4FEA01E8824F5F5F4FEA01F8824F5F7A
:1044D0005F4FEA0118824F5F5F4FEA01088317962A
:1044E0003C932E9316974D5F5F4FEA0198834F5F81
:1044F0005F4FEA0198834F5F5F4FEA011883128292
:1045000011824E5F5F4FEA0178834F5F5F4FEA0190
:1045100018824F5F5F4FEA0168831082E501D882FD
:104520008F5F53967396D3E1AD0EB11C803109F6BF
:1045300080934303DF91CF911F910F91FF90EF90F4
:10454000DF90BF90AF900895CF93DF9390E0FC0190
:10455000EC58FD4E2491FC01E05AFD4E84918823D5
:10456000C1F090E0880F991FFC01EA5AFD4EC591F9
:10457000D491FC01E45BFD4EA591B4919FB7F894F2
:104580003881822F809583238883EC91E22BEC93F2
:104590009FBFDF91CF9108951F920F920FB60F9298
:1045A00011242F933F938F939F93AF93BF93809149
:1045B000540590915505A0915605B091570530913D
:1045C000530523E0230F2D3768F126E8230F0296C9
:1045D000A11DB11D2093530580935405909355055B
:1045E000A0935605B093570580914F0590915005C3
:1045F000A0915105B09152050196A11DB11D809366
:104600004F0590935005A0935105B0935205BF916B
:10461000AF919F918F913F912F910F900FBE0F906F
:104620001F9018950196A11DB11DD4CFCF93DF9394
:10463000CDB7DEB72B970FB6F894DEBF0FBECDBF58
:10464000789484B5826084BD84B5816084BD85B56D
:10465000826085BD85B5816085BD80916E00816079
:1046600080936E001092810080918100826080931F
:104670008100809181008160809381008091800021
:104680008160809380008091B10084608093B1004C
:104690008091B00081608093B00080917A00846046
:1046A00080937A0080917A00826080937A00809172
:1046B0007A00816080937A0080917A00806880938C
:1046C0007A001092C1008AB18C608AB91092C5003C
:1046D0001092C4008091C00082608093C00086E088
:1046E0008093C20088E98093C1001092C5001092A7
:1046F000C40080E58CBD81E08DBD8FEF83B98CE077
:1047000085B98CE284B92FEF32E547E02150304083
:104710004040E1F700C000008FEF92E5A7E0815034
:104720009040A040E1F700C000000E94D31EBFEF00
:10473000E1EEF4E0B150E040F040E1F700C00000ED
:1047400061E18CE10E94EA102FEF39EF40E0215047
:1047500030404040E1F700C000000E94E3108FE1CC
:104760009EE40197F1F700C0000062E48CE10E9432
:10477000EA109FEFA9EFB0E09150A040B040E1F700
:1047800000C000000E94E310EFE1FEE43197F1F772
:1047900000C000006DE58CE10E94EA10FFEF29EFF8
:1047A00030E0F15020403040E1F700C000000E94AE
:1047B000E3108FE19EE40197F1F700C0000067E18C
:1047C00084E20E94EA109FEFA9EFB0E09150A04070
:1047D000B040E1F700C000000E94E3100E947B207F
:1047E00080E390E09093890080938800109280008D
:1047F00088E08093810080918100846080938100B3
:1048000078940E947B2080916403909165030F97B8
:104810000CF055C08091DE02882309F44CC0815011
:10482000282F30E0682FF901E65CFD4F808190E091
:10483000FC01EE0FFF1FEE0FFF1FEE0FFF1F8E0F8D
:104840009F1FFC01E857F94F70855091DD022BC086
:104850009FEF960FA92FB0E0A65CBD4F4C91242F7F
:1048600030E07901EE0CFF1CEE0CFF1CEE0CFF1C7F
:104870008701020F131F0857194FF8018085811116
:1048800081502E0D3F1DF901E857F94F808787179A
:1048900040F0E62FF0E0E65CFD4F80818C93408392
:1048A000872F692F782F651751F06111D1CFAFE0B5
:1048B000B0E09FE0D1CF2FE030E06FE0B4CFEFE386
:1048C000FCE93197F1F700C0000080E10E94A422CA
:1048D00081E10E94A422FFEF27E833E1F15020405C
:1048E0003040E1F700C0000010926E00BFED2B2EAB
:1048F000B2E03B2E1CE8612E11E1712E07E1902EF3
:10490000329905C0809101018C3F08F4AAC7339900
:1049100005C080910101853008F0AEC70E94830B6D
:1049200080934E05803FF1F087FFEACF807F809330
:104930004B050E94830B80934A0590914B05292FCC
:104940002F7E203C09F4A3C70E94830B8093490566
:10495000282F40914A0560914E0580914B050E9499
:104960009417CECFF1E0F0934D050E94830B809316
:104970004C05E0914D0591E09E0F90934D05F0E0C0
:10498000E152FD4F8083873F81F7983008F09AC34A
:104990001091E0023091E102F090E2022091E302F6
:1049A0009091E40292FD305891FF03C040E8E42E5C
:1049B000FE0C90FD2058412F50E04831510508F081
:1049C0007EC3FA01E255FF4F0C9405300E94D31EBE
:1049D0008FE39CE90197F1F700C000000E947B2063
:1049E0001092DD021092DE021092650310926403B1
:1049F00010928806109289062FE720938B069FEF6E
:104A000090938A0680E280938C0610928F06109213
:104A10008E061092900610923A02A1E0A0939106A1
:104A2000A093920620939406909393068093950604
:104A3000109298061092970610929906A0933B0246
:104A400032E030939A0630939B0620939D06909314
:104A50009C0680939E061092A1061092A0061092CA
:104A6000A20630933C0233E03093A3063093A406B1
:104A70002093A6069093A5068093A7061092AA06F7
:104A80001092A9061092AB0630933D0234E03093A9
:104A9000AC063093AD062093AF069093AE0680939C
:104AA000B0061092B3061092B2061092B40630937C
:104AB0003E0235E03093B5063093B6062093B80633
:104AC0009093B7068093B9061092BC061092BB066D
:104AD0001092BD0630933F0236E03093BE0630930D
:104AE000BF062093C1069093C0068093C206109221
:104AF000C5061092C4061092C6063093400237E0F5
:104B00003093C7063093C8062093CA069093C9060F
:104B10008093CB061092CE061092CD061092CF064F
:104B20003093410238E03093D0063093D106209381
:104B3000D3069093D2068093D4061092D706109293
:104B4000D6061092D8063093420239E03093D90647
:104B50003093DA062093DC069093DB068093DD0623
:104B60001092E0061092DF061092E10630934302A5
:104B70003AE03093E2063093E3062093E506909303
:104B8000E4068093E6061092E9061092E806109279
:104B9000EA06309344023BE03093EB063093EC0698
:104BA0002093EE069093ED068093EF061092F206A6
:104BB0001092F1061092F306309345023CE03093D8
:104BC000F4063093F5062093F7069093F60680934B
:104BD000F8061092FB061092FA061092FC0630932B
:104BE00046023DE03093FD063093FE062093000719
:104BF0009093FF0680930107109204071092030719
:104C000010920507309347023EE030930607309339
:104C10000707209309079093080780930A071092CB
:104C20000D0710920C073FE030930F0730931007E9
:104C30002093120790931107809313071092160781
:104C4000109215071092170730934902A8E5B5E0B6
:104C5000E7E6F5E08AE695E00AE074E062E050E31A
:104C600048E025E0F22E6D01D6011C939F012E50E5
:104C70003109D9011C922F5F3F4FD9019C922F5FC0
:104C80003F4FD9010C932F5F3F4FD9011C922F5FEB
:104C90003F4FD9017C93D60117967C926E9216975E
:104CA0002D5F3F4FA8E1EA2ED901EC922F5F3F4FD5
:104CB000D901EC922F5F3F4FD9016C931282118280
:104CC0002E5F3F4FD9015C932F5F3F4FD9011C925C
:104CD0002F5F3F4FD9014C931082DC01FC921F5F84
:104CE000B3E1CB0ED11C73964396103109F0BCCFC3
:104CF00010920E0780914902809348028EE08093C3
:104D0000490230914702832F90E0FC01EE0FFF1F14
:104D1000EE0FFF1FEE0FFF1FDF01A80FB91FA857EF
:104D2000B94F18962C91222309F4C1C521508E0F3A
:104D30009F1FFC01E857F94F20878091480280931C
:104D400047023093480230914602832F90E0FC01E5
:104D5000EE0FFF1FEE0FFF1FEE0FFF1FDF01A80F6B
:104D6000B91FA857B94F18962C91222309F49DC555
:104D700021508E0F9F1FFC01E857F94F208780912B
:104D80004702809346023093470230914502832FB9
:104D900090E0FC01EE0FFF1FEE0FFF1FEE0FFF1F55
:104DA000DF01A80FB91FA857B94F18962C912223DD
:104DB00009F479C521508E0F9F1FFC01E857F94F68
:104DC00020878091460280934502309346023091BD
:104DD0004402832F90E0FC01EE0FFF1FEE0FFF1F38
:104DE000EE0FFF1FDF01A80FB91FA857B94F189684
:104DF0002C91222309F45DC521508E0F9F1FFC01C9
:104E0000E857F94F20878091450280934402309300
:104E1000450230914302832F90E0FC01EE0FFF1F0B
:104E2000EE0FFF1FEE0FFF1FDF01A80FB91FA857DE
:104E3000B94F18962C91222309F441C521508E0FA9
:104E40009F1FFC01E857F94F20878091440280930F
:104E500043023093440230914202832F90E0FC01E0
:104E6000EE0FFF1FEE0FFF1FEE0FFF1FDF01A80F5A
:104E7000B91FA857B94F18962C91222309F41DC5C4
:104E800021508E0F9F1FFC01E857F94F208780911A
:104E90004302809342023093430230914102832FB8
:104EA00090E0FC01EE0FFF1FEE0FFF1FEE0FFF1F44
:104EB000DF01A80FB91FA857B94F18962C912223CC
:104EC00009F4F9C421508E0F9F1FFC01E857F94FD8
:104ED00020878091420280934102309342023091B8
:104EE0004002832F90E0FC01EE0FFF1FEE0FFF1F2B
:104EF000EE0FFF1FDF01A80FB91FA857B94F189673
:104F00002C91222309F4E1C421508E0F9F1FFC0134
:104F1000E857F94F208780914102809340023093F7
:104F2000410230913F02832F90E0FC01EE0FFF1F02
:104F3000EE0FFF1FEE0FFF1FDF01A80FB91FA857CD
:104F4000B94F18962C91222309F4C7C421508E0F13
:104F50009F1FFC01E857F94F208780914002809302
:104F60003F023093400230913E02832F90E0FC01DB
:104F7000EE0FFF1FEE0FFF1FEE0FFF1FDF01A80F49
:104F8000B91FA857B94F18962C91222309F4A3C42E
:104F900021508E0F9F1FFC01E857F94F2087809109
:104FA0003F0280933E0230933F0230913D02832FB7
:104FB00090E0FC01EE0FFF1FEE0FFF1FEE0FFF1F33
:104FC000DF01A80FB91FA857B94F18962C912223BB
:104FD00009F47FC421508E0F9F1FFC01E857F94F41
:104FE000208780913E0280933D0230933E023091B3
:104FF0003C02832F90E0FC01EE0FFF1FEE0FFF1F1E
:10500000EE0FFF1FDF01A80FB91FA857B94F189661
:105010002C91222309F463C421508E0F9F1FFC01A1
:10502000E857F94F208780913D0280933C023093EE
:105030003D0230913B02832F90E0FC01EE0FFF1FF9
:10504000EE0FFF1FEE0FFF1FDF01A80FB91FA857BC
:10505000B94F18962C91222309F446C421508E0F83
:105060009F1FFC01E857F94F208780913C028093F5
:105070003B0230933C0230913A02832F90E0FC01D6
:10508000EE0FFF1FEE0FFF1FEE0FFF1FDF01A80F38
:10509000B91FA857B94F18962C91211118C420E0B8
:1050A0008E0F9F1FFC01E857F94F208780913B022C
:1050B00080933A0230933B02E1E0E0934605109280
:1050C0004D051ECC8091E0028334C9F78091E10246
:1050D0008F37A9F78091E202823089F78091E3024D
:1050E0008111EDCF8091E4028111E9CF8091E50239
:1050F0008F70AEE18A9FC00111242091E602FC016D
:10510000EA59FC4F422F407650E05595479555950A
:10511000479555954795559547955595479540839E
:10512000322F3871330F330F330F2770232B218326
:10513000FC01E259FC4F7F018C0108591C4FBC0156
:1051400065597C4FDC01A659BC4F9C0127593C4F47
:105150006901FC01E459FC4F5F019C0123593C4F5C
:105160003A83298340E050E0BB87AA87FA01E152E5
:10517000FD4F8085982F9077592E52949FE05922A9
:1051800082FB992790F9282F2870422E492A837094
:10519000882E2185A0E12A9FC001112498878F8342
:1051A00032853F708385B0E18B9FC0011124842933
:1051B000D8018C938485B0E18B9FC0011124832B8F
:1051C000D6018C9385858F702F81282BAA85BB856E
:1051D0002C938685880F880F882ADB018C9287851F
:1051E000D5018C938089282F207722952F70B0E1EC
:1051F0008B9FC0011124822BA981BA818C93818954
:10520000880F880F880F582AF7015082465F5F4F3A
:10521000F7E0EF0EF11C095F1F4F695F7F4F2A8592
:105220003B85295F3F4F3B872A8737E0C30ED11C60
:1052300087E0A80EB11C1796BA83A983483251059E
:1052400009F094CF0E940B1310924D0559CB83E1C6
:10525000389FF0011124E85AFA4F82818093DF02CF
:1052600083818093E00284818093E1028581809331
:10527000E20282898093E4022681378191E12C3C0D
:10528000390709F41EC381E02C50324109F080E057
:105290008093E30230924805209247058FED92E01B
:1052A0000E94CD1210924D052BCBF1100CC381E062
:1052B00043E1349FF0011124E85AFA4F828B109297
:1052C0004D051ECB23E1329FF0011124E85AFA4F1D
:1052D000F28210924D0514CB91E0F91609F401C346
:1052E000F91608F4DDC2A2E0FA12DAC24CEC51E180
:1052F000B3E13B9FF0011124E85AFA4F57834683EC
:1053000010924D05FDCA83E1389FF0011124E85A3F
:10531000FA4FF58210924D05F3CA43E1349FF00134
:105320001124E85AFA4FF48210924D05E9CA23E19C
:10533000329FF0011124E85AFA4FF38210924D0582
:10534000DFCA6F2D832F90E00E94071110924D0548
:10535000D7CAC32ED12C83E1389FF0011124E85A1B
:10536000FA4F008911890115110561F1E32EB22E62
:1053700006C0F801068117810115110509F1D80150
:1053800012968C911297F812F4CF8C9190E0FC0158
:10539000EE0FFF1FEE0FFF1FEE0FFF1FE80FF91FAD
:1053A000E857F94F418150E0405E5F4F6FE070E099
:1053B0000E94700BF8010681178101151105F9F69D
:1053C0003E2D2B2D809164039091650380319105D2
:1053D00009F4EBC5E091DD0241E04E0F4093DD02A0
:1053E000F0E0E65CFD4FA080403109F47FC20196F9
:1053F0009093650380936403B12CF501EE0FFF1FBA
:10540000EE0FFF1FEE0FFF1FEA0DFB1DE857F94FD0
:1054100083E18C9DD0018D9DB00D1124A85ABA4F07
:105420008C918183F2823383248350968D919C9159
:1054300051979783868315825196FC93EE935097EC
:1054400083E18C9DF0018D9DF00D1124E85AFA4FF7
:1054500000814F2D6A2D832F0E941C1210924D0542
:105460004FCA4EE1349FF0011124EA59FC4FEF0D71
:10547000F11D208310924D0543CABEE13B9FF00110
:105480001124EA59FC4FEF0DF11D20830E940B13EC
:1054900010924D0535CAE0E23E9FC00111248F0DE8
:1054A000911DF999FECF622F0E94F72F10924D05A2
:1054B00027CA332309F4E3C3313009F41AC2333065
:1054C00009F0FDCD309300013E830E947B201092B5
:1054D000DD021092DE0210926503109264031092B6
:1054E0008806109289062FE720938B069FEF9093F2
:1054F0008A0680E280938C0610928F0610928E06A8
:105500001092900610923A02E1E0E0939106E09347
:10551000920620939406909393068093950610929A
:1055200098061092970610929906E0933B0242E08B
:1055300040939A0640939B0620939D0690939C0669
:1055400080939E061092A1061092A0061092A206C9
:1055500040933C023E813093A3063093A4062093EF
:10556000A6069093A5068093A7061092AA0610920D
:10557000A9061092AB0630933D0234E03093AC069E
:105580003093AD062093AF069093AE068093B0069D
:105590001092B3061092B2061092B40630933E02F7
:1055A00035E03093B5063093B6062093B806909355
:1055B000B7068093B9061092BC061092BB061092F3
:1055C000BD0630933F0236E03093BE063093BF06EF
:1055D0002093C1069093C0068093C2061092C50620
:1055E0001092C4061092C6063093400237E0309302
:1055F000C7063093C8062093CA069093C9068093C5
:10560000CB061092CE061092CD061092CF063093A4
:10561000410238E03093D0063093D1062093D30670
:105620009093D2068093D4061092D7061092D60695
:105630001092D8063093420239E03093D906309365
:10564000DA062093DC069093DB068093DD06109249
:10565000E0061092DF061092E106309343023AE032
:105660003093E2063093E3062093E5069093E40638
:105670008093E6061092E9061092E8061092EA0678
:10568000309344023BE03093EB063093EC062093DA
:10569000EE069093ED068093EF061092F2061092BC
:1056A000F1061092F306309345023CE03093F40685
:1056B0003093F5062093F7069093F6068093F8064C
:1056C0001092FB061092FA061092FC0630934602E6
:1056D0003DE03093FD063093FE0620930007909343
:1056E000FF0680930107109204071092030710929F
:1056F0000507309347023EE03093060730930707D3
:10570000209309079093080780930A0710920D07CA
:1057100010920C0710920E07309348023FE030932E
:105720000F0730931007209312079093110780936F
:10573000130710921607109215071092170730934F
:105740004902A8E5B5E0E7E6F5E02AE635E080E0C5
:105750007AE064E052E040E398E015E0F12E6D015C
:10576000D6018C938F010E501109D8011C920F5F46
:105770001F4FD8019C920F5F1F4FD8017C930F5F82
:105780001F4FD8011C920F5F1F4FD8016C93D60199
:1057900017967C926E9216970D5F1F4FA8E1EA2E26
:1057A000D801EC920F5F1F4FD801EC920F5F1F4F93
:1057B000D8015C93128211820E5F1F4FD8014C9367
:1057C0000F5F1F4FD8011C920F5F1F4FD8019C9392
:1057D0001082D901FC928F5FB3E1CB0ED11C73967E
:1057E0002D5E3F4F803109F0BBCF10924D0588C828
:1057F000F894622F8F2D0E94670B789410924D05BC
:105800007FC84EE1349FC00111248A599C4F909368
:105810004805809347050E94CD1210924D0570C82F
:10582000F0E23F9FC00111240EE110E09C012F5FC8
:105830003F4F30934805209347050E94EF2F9091EA
:10584000C00095FFFCCF8093C60020E52A95F1F7B4
:105850000150110909F433CC809147059091480516
:10586000E5CF8F5F80930101F8946091010189E198
:105870000E94670B78944BC8F894609101016150C5
:105880006093010189E10E94670B789447C82091D9
:105890004905482F60914E05892F0E94941730C802
:1058A0004CE851E125CD20E086CA20E062CA20E024
:1058B0003ECA20E0A2CA20E006CB20E0E2CA20E0F7
:1058C000BECA82E0E5CC8F2DF3CC20E01ECB215068
:1058D000E7CB20E080CB20E05CCB20E038CB20E0A1
:1058E0009CCB4CE052E104CD20E0B9CB1092DD021C
:1058F0007ECD309300011092580530936B0562E025
:1059000060937E0553E05093910544E04093A405D5
:10591000B5E04B2E4092B70516E0512E5092CA05C5
:1059200007E0802E8092DD0588E0A82EA092F00589
:1059300099E0B92EB09203062AE0C22EC092160654
:105940007BE0D72ED0922906ECE0EE2EE0923C06CA
:10595000FDE0FF2EF0924F060EE0009362061FE07E
:10596000109375063E834D835C836B830E947B207E
:105970001092DD021092DE02109265031092640311
:1059800010928806109289062FE720938B069FEFCE
:1059900090938A0680E280938C0610928F06109274
:1059A0008E061092900610923A023E813093910634
:1059B00030939206209394069093930680939506D5
:1059C00010929806109297061092990630933B0217
:1059D0006B8160939A0660939B0620939D0690933B
:1059E0009C0680939E061092A1061092A00610922B
:1059F000A20660933C025C815093A3065093A406D8
:105A00002093A6069093A5068093A7061092AA0657
:105A10001092A9061092AB0650933D024D8140931F
:105A2000AC064093AD062093AF069093AE068093EC
:105A3000B0061092B3061092B2061092B4064093CC
:105A40003E024092B5064092B6062093B806909367
:105A5000B7068093B9061092BC061092BB0610924E
:105A6000BD0640923F025092BE065092BF06209360
:105A7000C1069093C0068093C2061092C50610928C
:105A8000C4061092C606509240028092C7068092C9
:105A9000C8062093CA069093C9068093CB0610923D
:105AA000CE061092CD061092CF0680924102A092AF
:105AB000D006A092D1062093D3069093D20680936D
:105AC000D4061092D7061092D6061092D806A0924D
:105AD0004202B092D906B092DA062093DC06909387
:105AE000DB068093DD061092E0061092DF0610922E
:105AF000E106B0924302C092E206C092E306209310
:105B0000E5069093E4068093E6061092E90610926B
:105B1000E8061092EA06C0924402D092EB06D092B8
:105B2000EC062093EE069093ED068093EF0610921C
:105B3000F2061092F1061092F306D0924502E0921E
:105B4000F406E092F5062093F7069093F60680930C
:105B5000F8061092FB061092FA061092FC06E092EC
:105B60004602F092FD06F092FE0620930007909305
:105B7000FF0680930107109204071092030710920A
:105B80000507F0924702009306070093070720934A
:105B900009079093080780930A0710920D07109247
:105BA0000C0710920E070093480210930F071093F2
:105BB00010072093120790931107809313071092F8
:105BC0001607109215071092170710934902A8E5BF
:105BD000B5E0E7E6F5E02AE635E080E00AE014E02B
:105BE00072E060E398E045E0F42E6D01D6018C93FD
:105BF000AF014E505109DA011C924F5F5F4FDA013D
:105C00009C924F5F5F4FDA010C934F5F5F4FDA0159
:105C10001C924F5F5F4FDA011C93D60117967C925E
:105C20006E9216974D5F5F4FA8E1EA2EDA01EC9273
:105C30004F5F5F4FDA01EC924F5F5F4FDA017C9369
:105C4000128211824E5F5F4FDA016C934F5F5F4F9C
:105C5000DA011C924F5F5F4FDA019C931082D901E9
:105C6000FC928F5FB3E1CB0ED11C73962D5E3F4F3C
:105C7000803109F0BBCF10924D050C948024109216
:105C800000010E947B201092DD021092DE02109231
:105C900065031092640310928806109289062FE71C
:105CA00020938B069FEF90938A0680E280938C0668
:105CB00010928F0610928E061092900610923A0261
:105CC000F1E0F0939106F09392062093940690935E
:105CD000930680939506109298061092970610925C
:105CE0009906F0933B0232E030939A0630939B067C
:105CF00020939D0690939C0680939E061092A10689
:105D00001092A0061092A20630933C0233E030932A
:105D1000A3063093A4062093A6069093A50680932D
:105D2000A7061092AA061092A9061092AB0630930D
:105D30003D0234E03093AC063093AD062093AF06BD
:105D40009093AE068093B0061092B3061092B206FE
:105D50001092B40630933E0235E03093B50630938E
:105D6000B6062093B8069093B7068093B9061092B2
:105D7000BC061092BB061092BD0630933F0236E07F
:105D80003093BE063093BF062093C1069093C006A1
:105D90008093C2061092C5061092C4061092C606E1
:105DA0003093400237E03093C7063093C806209303
:105DB000CA069093C9068093CB061092CE06109225
:105DC000CD061092CF063093410238E03093D006D2
:105DD0003093D1062093D3069093D2068093D406B5
:105DE0001092D7061092D6061092D806309342022F
:105DF00039E03093D9063093DA062093DC0690938D
:105E0000DB068093DD061092E0061092DF0610920A
:105E1000E106309343023AE03093E2063093E30622
:105E20002093E5069093E4068093E6061092E90637
:105E30001092E8061092EA06309344023BE0309359
:105E4000EB063093EC062093EE069093ED068093DC
:105E5000EF061092F2061092F1061092F3063093BC
:105E600045023CE03093F4063093F5062093F706A4
:105E70009093F6068093F8061092FB061092FA06AD
:105E80001092FC06309346023DE03093FD063093BD
:105E9000FE06209300079093FF068093010710925F
:105EA00004071092030710920507309347023EE063
:105EB000309306073093070720930907909308074C
:105EC00080930A0710920D0710920C0710920E078C
:105ED000309348023FE030930F0730931007209330
:105EE00012079093110780931307109216071092D0
:105EF00015071092170730934902A8E5B5E0E7E6C9
:105F0000F5E02AE635E080E00AE014E072E060E3C4
:105F100098E045E0F42E6D01D6018C93AF014E5010
:105F20005109DA011C924F5F5F4FDA019C924F5F7B
:105F30005F4FDA010C934F5F5F4FDA011C924F5FA6
:105F40005F4FDA011C93D60117967C926E921697DA
:105F50004D5F5F4FA8E1EA2EDA01EC924F5F5F4F91
:105F6000DA01EC924F5F5F4FDA017C93128211826B
:105F70004E5F5F4FDA016C934F5F5F4FDA011C9207
:105F80004F5F5F4FDA019C931082D901FC928F5FC3
:105F9000B3E1CB0ED11C73962D5E3F4F803109F0DB
:105FA000BBCF10924D050C948024A090DD02B12C43
:105FB000F501EE0FFF1FEE0FFF1FEE0FFF1FEA0DA3
:105FC000FB1DE857F94F418150E06FE070E0C501DB
:105FD0002B833E830E94700B2B813E8131CAF9993D
:105FE000FECF92BD81BDF89A992780B50895262FDE
:105FF000F999FECF1FBA92BD81BD20BD0FB6F894AE
:10600000FA9AF99A0FBE01960895EE0FFF1F0590B8
:10601000F491E02D0994DC0101C06D934150504092
:08602000E0F70895F894FFCFAA
:1060280001ACFF80402010080402010000000000BD
:10603800000001000000000100000001020303004D
:10604800000003000000010300000003000000023C
:0A605800030001020402010202032A
:00000001FF
