:100000000C94D10C0C94EE0C0C94EE0C0C94EE0CA5
:100010000C94EE0C0C94EE0C0C94EE0C0C94EE0C78
:100020000C94EE0C0C94EE0C0C94EE0C0C94EE0C68
:100030000C94EE0C0C94EE0C0C94EE0C0C94EE0C58
:100040000C94EB1F0C94F30E0C948A0F0C94EE0C92
:100050000C94EE0C0C94EE0C0C94EE0C0C94EE0C38
:100060000C94EE0C0C94EE0CE513F6132C131B13EE
:100070001B131B131B131B131B131B131B131B1310
:100080001B1385141B131B131B1314141B132C138A
:100090001B131B130214E91AC91A68196819681985
:1000A0006819931A421B6819681968190C1B68199A
:1000B0006819681968196819681968196819681938
:1000C0006819681968196819681968196819681928
:1000D00068196819021BF81A6819681968196819EB
:1000E0006819681968196819681968196819681908
:1000F00068196819681968196819681968196819F8
:1001000068196819681968196819781BEE1AAE1B06
:10011000931B68196819C91B681968196819681947
:100120006819681968196819681968196819BF1A6F
:1001300068196819681968196819681968196819B7
:1001400068196819681968196819681968196819A7
:1001500068196819681968196819681968198F1A6F
:10016000BA1A681968196819681968196819681934
:100170006819681968196819681968196819681977
:100180006819681968196819E51B7C24CB270C23AA
:10019000D922D922FE22DC22D922D922D722E02755
:1001A000D427000000000000000000000000000054
:1001B000000000000000000000000000000000003F
:1001C000000000000000000000000000000000002F
:1001D000000000000000000000000000000000001F
:1001E000000000000000000000000100000000000E
:1001F00000000000000000000000FF000000000000
:1002000000000000000001010101010101010100E5
:10021000000000000000FFFFFFFFFFFFFFFFFF00E7
:1002200000000000000101010101020101010101C2
:100230000000000000FFFFFFFFFFFEFFFFFFFFFFCA
:10024000000000000001010202020202020201019C
:100250000000000000FFFFFEFEFEFEFEFEFEFFFFB0
:100260000000000001010202020203020202020178
:1002700001000000FFFFFEFEFEFEFDFEFEFEFEFF93
:10028000FF00000001010202030303030302020155
:1002900001000000FFFFFEFEFDFDFDFDFDFEFEFF77
:1002A000FF00000001020203030304030303020230
:1002B00001000000FFFEFEFDFDFDFCFDFDFDFEFE5C
:1002C000FF0000000102030304040404040303020A
:1002D00001000000FFFEFDFDFCFCFCFCFCFDFDFE42
:1002E000FF000000010203040404050404040302E7
:1002F00001000000FFFEFDFCFCFCFBFCFCFCFDFE25
:10030000FF000001020303040505050505040303BE
:10031000020100FFFEFDFDFCFBFBFBFBFBFCFDFD0A
:10032000FEFF00010203040405050605050404039D
:10033000020100FFFEFDFCFCFBFBFAFBFBFCFCFDED
:10034000FEFF000102030405060606060605040377
:10035000020100FFFEFDFCFBFAFAFAFAFAFBFCFDD3
:10036000FEFF000102030405060607060605040356
:10037000020100FFFEFDFCFBFAFAF9FAFAFBFCFDB4
:10038000FEFF00010204050606070707060605042E
:10039000020100FFFEFCFBFAFAF9F9F9FAFAFBFC9C
:1003A000FEFF00010304050607070807070605040A
:1003B000030100FFFDFCFBFAF9F9F8F9F9FAFBFC7F
:1003C000FDFF0001030406070708080807070604E5
:1003D000030100FFFDFCFAF9F9F8F8F8F9F9FAFC65
:1003E000FDFF0001030506070808090808070605C0
:1003F000030100FFFDFBFAF9F8F8F7F8F8F9FAFB4A
:10040000FDFF00010305060708090909080706059D
:10041000030100FFFDFBFAF9F8F7F7F7F8F9FAFB2B
:10042000FDFF00010305070809090A090908070576
:10043000030100FFFDFBF9F8F7F7F6F7F7F8F9FB12
:10044000FDFF000204050708090A0A0A0908070552
:10045000040200FEFCFBF9F8F7F6F6F6F7F8F9FBF4
:10046000FCFE0002040607090A0A0B0A0A0907062D
:10047000040200FEFCFAF9F7F6F6F5F6F6F7F9FADB
:10048000FCFE0002040608090A0B0B0B0A09080609
:10049000040200FEFCFAF8F7F6F5F5F5F6F7F8FABF
:1004A000FCFE0002040608090B0B0C0B0B090806E6
:1004B000040200FEFCFAF8F7F5F5F4F5F5F7F8FAA2
:1004C000FCFE00020406080A0B0C0C0C0B0A0806C2
:1004D000040200FEFCFAF8F6F5F4F4F4F5F6F8FA86
:1004E000FCFE00020407090A0C0C0D0C0C0A09079B
:1004F000040200FEFCF9F7F6F4F4F3F4F4F6F7F96D
:10050000FCFE00020507090B0C0D0D0D0C0B090775
:10051000050200FEFBF9F7F5F4F3F3F3F4F5F7F950
:10052000FBFE00020507090B0C0D0E0D0C0B090755
:10053000050200FEFBF9F7F5F4F3F2F3F4F5F7F931
:10054000FBFE000205080A0C0D0E0E0E0D0C0A082B
:10055000050200FEFBF8F6F4F3F2F2F2F3F4F6F81B
:10056000FBFE000205080A0C0D0E0F0E0D0C0A080A
:10057000050200FEFBF8F6F4F3F2F1F2F3F4F6F8FC
:10058000FBFE000305080A0C0E0F0F0F0E0C0A08E5
:10059000050300FDFBF8F6F4F2F1F1F1F2F4F6F8E0
:1005A000FBFD656565656565656565656565657AB8
:1005B0001129425D791737597D22657A1129425DEB
:1005C000791737597D22657A1129425D7917375994
:1005D0007D22657A1129425D791737597D22657A26
:1005E0001129425D791737597D22657A1129425DBB
:1005F000791737597D22657A1129425D7917375964
:100600007D22657A1129425D791737597D22657AF5
:100610001129425D791737597D22657A1129425D8A
:10062000655D101010101010101010101010101028
:100630001818181818202020202811111919191914
:1006400019212121212912121A1A1A1A1A222222D8
:10065000222A13131B1B1B1B1B232323232B1414C2
:100660001C1C1C1C1C242424242C15151D1D1D1DA4
:100670001D252525252D16161E1E1E1E1E26262668
:10068000262E17171F1F1F1F1F272727272F101062
:1006900018181818182020202028111119191919B4
:1006A000101E79430267FF9D0010402333E2730060
:1006B00050001241D3580110002363D402011000EE
:1006C00079432322F59E0010002232FF7200500071
:1006D0002322FD660110001352F428011000794511
:1006E0002342D6510040061361D722011000334344
:1006F000DE2D0020001351DF220120007945235117
:10070000FE6845130623A3D30A4327002251C35C86
:1007100010170533A3D30A442300798323A3B36DB1
:100720003030012292B46F0430001344A14D0420F4
:10073000011371A814311000794553C4FB8C447027
:10074000951282FF1241100013B0F14944100213B8
:1007500072FF1041100079462352E001001024037B
:1007600052F3530060180313F6720070202372EFE7
:100770001003102879431261FF6044102D1251F0CC
:10078000744410003373F26D4470202392F22041C0
:10079000300079456356EF560090124244DE18014E
:1007A00010006366EC5B00B0284244EE18011000B4
:1007B00079473349F424447000233BFB3C44400018
:1007C0002343F4494420013244FE1044100079458B
:1007D000232550820020083324F00501130023252F
:1007E000A0700090081312F01801170079452244F8
:1007F000C25C4170002359D61E5140002334C27898
:100800005180003242DF1C31100079454347AFA1CF
:1008100000C0074254BF140110006347BF8400604A
:10082000005354DF1401100079456269FD620050E5
:10083000025277FD0C0310006366FA7600500062E6
:1008400076FE0203100079453234F54130A0802253
:1008500033F2140310003234F5413073472233F27F
:10086000160327007946424AEC1A00200B3233B5B2
:10087000510030083233D0280010004244C618031B
:10088000100079C202C4F00230000002C5F001007D
:10089000102002C5D11E30314802C1F01E30202088
:1008A000794702A5E10E5002040208D57400200029
:1008B00002A5E10613130002A6E0060327007987CC
:1008C00002DFF02570130402AFB1155010A802EF3B
:1008D000F02413260002EFF0243307887947025FE3
:1008E000904E0030000227B274007000025F801248
:1008F00000100002578012000028798503587162A9
:10090000002083036F5002011000035C6329001074
:1009100028037F50010120007985020281540036AE
:100920008A02A27209011700020F614800128802B0
:10093000AF701E0123007984029FF0B307E000022C
:100940008FF0A411A000028FF090031000028F60BE
:100950000E0120007905020C703C30216402A27067
:100960002A112100020F705010102B02AF70283195
:10097000108079851341E8550010063273FF00019D
:1009800010005355B4380030084294DF360310008D
:1009900079441247F26A44902C1383F5B645D0008F
:1009A0001342F15E4510062283DF102510007943C3
:1009B0001377F3454510001245F24B455000027283
:1009C000FF7D4530000282CF1045100079C5222AF4
:1009D000F13D0010082292FF0E0310002332F64171
:1009E0000030204284E60E03100079856378D744F6
:1009F0000000073299E7000300003283E91300107A
:100A00000033A4B30003100079440328FF4C4407CB
:100A1000620211C13D44230002A2B13C4410001205
:100A2000A1B1284420007984022CB02100201C02AE
:100A3000A5C17400100002A5C15C00204002A1C540
:100A40003C03103079858272F0590000453293DF03
:100A5000180120408272B0440000057277AF34055F
:100A6000203079453383BA390010033283CB000537
:100A700010003213911F0010003283CA14051000B9
:100A800079431332A172441006336494E844C000E1
:100A90002333B25A4410001381B20044200079433A
:100AA0002337F14E441005436BC75444700023694B
:100AB000F25E4420006382B6004410007943233381
:100AC000C1764512043363A3664511002363916622
:100AD0004510002381B20045200079432337F23AC4
:100AE0004410036366F4544490002369C2624410C6
:100AF00000F382FF0C44100079432337F13A44108D
:100B0000026275B24844D0002369927A44100063AF
:100B100082F61844100079832286E5380010051209
:100B200084E69D0020401282E68C0110002282E9BA
:100B30000007100079457285F6504420067281FC4A
:100B4000014420007273F6504410067282FC014486
:100B5000100079850330604A1010620274620C0143
:100B6000150073A5E01900403272776F0E03110073
:100B700079850330602600100A0276610C1310009C
:100B80007376E02110103272776F0E0310007983B4
:100B90000266F04003100CF2E5FF5043500002756E
:100BA000F2B413100002736106133000798300263B
:100BB000F064011006F0E6FF544350880046F36CE1
:100BC0001330000073610201200079C50332715AAD
:100BD0001012A3026361083320000343705900140C
:100BE0006302636108531000798552BBF95000100D
:100BF000078277E2240710006257FF450010405239
:100C000066CF2407100079435288F4A400200672AE
:100C100098B4840050003227B4860010052324F1D4
:100C20001044100079434338F3114410032322FF8A
:100C3000844407003337F0724410003334FF00441B
:100C400000407987006A502E30113A0066C160007A
:100C500020200066611E03150000656114332360C7
:100C60007987025A600010134B0256C15C30101095
:100C7000026650020515080265511C0317D87985D4
:100C80000228916C101600025F701C031300032BE6
:100C90009050101320024F6001131700798502282D
:100CA000914C10104D025660180310000228802845
:100CB0001010D80247530113100079450200CF4CA1
:100CC00000603D0253665E034000023F70790010F1
:100CD00040025F500003200079850300CF50305060
:100CE0003F025376520340000247736A10105002CD
:100CF00051900005100079850240AF5800100002A5
:100D00005F7122031000024F9069101048025F705B
:100D10000213300079874364F6003040453235C114
:100D2000000010306267C0000310307267B000032B
:100D3000003079430258815001100E0258A45E0120
:100D400030000267716A001000028F9018111000C5
:100D50007943027671700110470258943E011000E9
:100D60000277616A011008028F8014031000794332
:100D70000265628801104702B8C462011008029738
:100D80009346011008028F7000032000794502701D
:100D90007568103050029D94000100100269714C7A
:100DA00011508802978200011010794502097043A2
:100DB000001240027E90060117000229615A301687
:100DC00004027EA00601134079450226815844178B
:100DD00006028F902040170002577158411066029A
:100DE00088901C4110007945028672404417060223
:100DF000AF90284417000286724041100602A89066
:100E00002841100079430243617001100602579790
:100E10009C01600832357B8C011040027FF010038A
:100E2000100079436369F374103000026280680037
:100E30001000020580311010080286810C0310009A
:100E400079450303902A44100C029280244110003B
:100E50000303903644104C02929054411008794597
:100E60000303701644100B0292703C4310400303BE
:100E7000702244104B0292703643100079450353A0
:100E8000704A00100603827218032000031570399F
:100E90001020100384711405100079850240A07A97
:100EA000031028129190240330000240B2602310F6
:100EB0000002A0A03803200079450240A08A031058
:100EC000281291912C0330000240B26023100012CE
:100ED000A0A12C03200079850307C162001008033C
:100EE0008171021130480307C1620010080381714B
:100EF0000C11314879450312719611200702828145
:100F00000C111000031251691140000282710C0093
:100F100010007985027CA13000501702879F9C1336
:100F200010000275817810100802A58018011000C9
:100F30007945021AD11C10300702B87394013000B1
:100F40000298E09C31100702A56004111080798599
:100F500072A690E835201F02A58010151040626926
:100F6000A93C0170C002A58090351000798502600F
:100F7000A00120D00712AAB08C21A018024F80B087
:100F8000152000029080142510007945037CC130A3
:100F90000050570297766C0110000288732F3020A2
:100FA00040028570040510007945025CA1180050CC
:100FB000170297655C3110400238A3095000900277
:100FC0009560040510007942026A60141510000251
:100FD000788014551000927A60B0551088027860BD
:100FE000145517407985728680F115201F0295806F
:100FF000000510006269A93C0110C002A5706815C7
:1010000010407985027FF4BB00104002AFA00E03B0
:101010001040022FF39B10204102AFA00E011040A0
:1010200079450270F068411707027FD028411740C8
:10103000023FF0514110A7028FE02841104079850E
:101040000274C8003040470266C7515440400256FF
:10105000850D012000028461083010807945022747
:1010600076111514400286F02C1510400227760DDB
:101070001511400286F02C15124079450262922229
:10108000451408028192381520600262922A4511A7
:101090000802819238152160794502004F340070B2
:1010A000300283764C012000029F707130104002A4
:1010B0008F700803100079471281C1544510C01287
:1010C00061C23C4511000280C0684524001281C104
:1010D0001845318079450232B0580010080292A0BC
:1010E000440310804243C52E0010050293D6300001
:1010F00010007945313FF09844700D4047F02E4480
:1011000050000011606203170E00518102031000AD
:1011100079450250A0A001110702403008051000D7
:101120000230A0BC011307024030080512007945C7
:10113000004561880517180065A10A0526000033DF
:1011400061880510DC0053900205124079450000CB
:10115000AF844517420073435A0580000033708501
:10116000051006005F60000523007945023124AABE
:1011700015700402526300111000023124AA157187
:10118000040252630011120079450332F05E001030
:10119000560246500E0115000336F31D00100202E0
:1011A0004750110311007945003141944415060060
:1011B0005260020117000045C178441305005280B7
:1011C00002031000794502384078101500024830BB
:1011D000020313000241308A00220002527002030F
:1011E000170079450368F80B55A001132580007599
:1011F00010800368F80B45A2011325800055138069
:1012000079850233634A10300302424025013000E1
:10121000023363400010850241410E0310007945FE
:101220001258F4514560052242C724441000125858
:10123000F45145E2052242C7244412007985224335
:101240006F550010A40243F3000310000243CF4186
:101250000023A45246933003270079421241F51E21
:101260001513585242FF1C1513481241F51E151153
:10127000585242FF1C15114879450011124A473750
:101280006C00412126103000002120504510040040
:1012900031300E4514007985020345880020000294
:1012A000C2A03A0310000223328C301080023FA00B
:1012B0000003100079450233586511200A1241627B
:1012C000181117200233586511230A1241621811B0
:1012D000132079453222D52A4520036242FF20455A
:1012E00070483222D50E4711446242FF20454188A2
:1012F00079852313D1280010203353DE02033000F8
:101300004227F13C0160088287FE020310087943FE
:101310001031F268441044506AF7504530003038BC
:10132000F3604450804144FF0445304079435057B6
:10133000F2520030468089F4560050802032FFA8D7
:101340000010052122FF0C4410007945526AFA2151
:101350004543263252C0204510005268FA394552A2
:10136000064342C020451400794500C9B1424410EB
:101370004900DF702C4431400099A3004410000064
:10138000D6802844400879850339811E00100A025E
:101390007662004110007376C02500202072839E83
:1013A0006605100079450240A04203102812919072
:1013B000340360000240B26023100002A0A03C038E
:1013C000200079453046F54144E0037066CE2E4456
:1013D00020002026C5784477084055FD045460005D
:1013E0007945404AE25C4470016067F12044500056
:1013F0006049E28444A7006067F710442000794701
:101400004354420045208032466058452000434402
:10141000E2004520054344F2000003107945919A0B
:10142000F286445105717AF200442300A08AF270DA
:1014300044A300707AF2004420007944423BF560F6
:10144000000027A23CF14C004000423CF42C01304B
:1014500000525EF00005000079458289F53A44109B
:10146000275253FE004400004343F5324400084332
:1014700044FE0044000079C581ABE200040762012C
:1014800043CF001400000044F7004400C00077FF81
:10149000004500B07945020F400045E007F2FF2FFC
:1014A00018259040020F400045E007F2FF2F184535
:1014B000E01879454268F20245604742A6883E45F9
:1014C00030102266F20045605182A8880245601003
:1014D0007945025CA13800501782987F14111000E2
:1014E000025CA12400800772988F301110007903EC
:1014F000020FF0100030072222FF5410002042405B
:10150000FF3000000842421F240000007985333775
:101510003A565550007376530155A00033373A566A
:101520005550004346530175A70079450302B67133
:101530004550153334F10C4540000302B671455057
:10154000153334F13C45470079C50206F00455F0E7
:1015500075025020105500000200F0604400700237
:1015600050202C4400007945021CF0000000C70206
:1015700052402000000002106F003090C772703F90
:101580001C00300079450203FF2C0150078286FBC6
:101590001011F0300202FF0811500F8286FB681113
:1015A00050300000000000000000000000000000BB
:1015B000000000000000000000000000000000002B
:1015C000000000000000000000000000000000001B
:1015D000000000000000000000000000000000000B
:1015E00000010000000000000000000000000000FA
:1015F00000000101010101010101010101010101DD
:1016000001020000000000000000000000010101D4
:1016100001010101010101020202020202020202B1
:1016200002030000000000000000010101010101AF
:101630000101020202020202020203030303030386
:10164000030400000000000000010101010101028B
:10165000020202020203030303030304040404045A
:101660000405000000000000010101010102020266
:10167000020203030303030404040404050505052F
:101680000506000000000001010101020202020241
:101690000303030304040404040505050506060604
:1016A000060700000000010101010202020203031B
:1016B00003030404040405050505060606060707DA
:1016C00007080000000001010102020202030303F7
:1016D00004040404050505060606060707070808AE
:1016E00008090000000001010102020203030304D3
:1016F0000404050505060606070707080808090982
:10170000090A0000000101010202020303030404AC
:101710000405050606060707070808080909090A57
:101720000A0B000000010101020203030304040587
:101730000505060606070708080809090A0A0A0B2C
:101740000B0C000000010102020203030404050562
:10175000050606070707080809090A0A0A0B0B0C01
:101760000C0D00000001010202030304040405053E
:101770000606070708080909090A0A0B0B0C0C0DD5
:101780000D0E00000001010202030304040505061A
:10179000060707080809090A0A0B0B0C0C0D0D0EA9
:1017A0000E0F0000010102020303040405050606F2
:1017B0000707080809090A0A0B0B0C0C0D0D0E0E81
:1017C0000F100000010102020303040405060607CE
:1017D00007080809090A0A0B0C0C0D0D0E0E0F0F55
:1017E00010110000010102020304040505060607AA
:1017F000080809090A0B0B0C0C0D0D0E0F0F101029
:101800001112000001010203030404050606070784
:101810000809090A0B0B0C0C0D0E0E0F0F101111FD
:10182000121300000101020303040505060707085F
:1018300009090A0A0B0C0C0D0E0E0F1010111212D2
:101840001314000001020203040405060607080839
:10185000090A0A0B0C0C0D0E0E0F101011121213A8
:101860001415000001020203040405060707080915
:10187000090A0B0C0C0D0E0E0F101111121313147C
:1018800015160000010202030405050607080809F1
:101890000A0B0B0C0D0E0E0F101111121314141550
:1018A0001617000001020303040506060708090ACB
:1018B0000A0B0C0D0D0E0F10111112131414151626
:1018C0001718000001020304040506070808090AA6
:1018D0000B0C0C0D0E0F10101112131414151617FB
:1018E00018190000010203040505060708090A0A81
:1018F0000B0C0D0E0F0F10111213141415161718D0
:10190000191A0000010203040506060708090A0B5C
:101910000C0D0D0E0F1011121314141516171819A3
:101920001A1B0000010203040506070809090A0B37
:101930000C0D0E0F10111212131415161718191A78
:101940001B1C00000102030405060708090A0B0C12
:101950000D0E0E0F101112131415161718191A1B4D
:101960001C1D00000102030405060708090A0B0CF0
:101970000D0E0F101112131415161718191A1B1C1F
:101980001D1E000102030405060708090A0B0C0DC1
:101990000E0F101112131415161718191A1B1C1DEF
:1019A0001E1F11241FBECFEFD8E0DEBFCDBF11E058
:1019B000A0E0B1E0E6EBF6E502C005900D92A031A3
:1019C000B107D9F728E0A0E1B1E001C01D92A0392C
:1019D000B207E1F70E9435200C94592B0C940000BB
:1019E000683CCE43E041EE4076403B401D400E4017
:1019F0000740034001400439D647CE43E041EE4062
:101A000076403B401D400E4007400340D1351B4C03
:101A1000CA45D5426641B24058402C4016400B4062
:101A20000540CB32A250D647CE43E041EE4076404F
:101A30003B401D400E400740F22F6E55F149CA440D
:101A40005A422A4194404A40254012400940412DC3
:101A5000825A1B4CCA45D5426641B24058402C4080
:101A600016400B40B72AE45F564ECE465143A34181
:101A7000D0406740334019400C4051289765A25030
:101A8000D647CE43E041EE4076403B401D400E40FD
:101A90000D26A26BFF52E1484C441D420C4185408B
:101AA000424021401040EB2308726E55F149CA4470
:101AB0005A422A4194404A4025401240E721D078BA
:101AC000EE57044B4A4597424841A34051402840B5
:101AD000144000200080825A1B4CCA45D542664102
:101AE000B24058402C401640341E9C87295D374D2B
:101AF0004C4613438541C140604030401840821C31
:101B0000AC8FE45F564ECE465143A341D040674070
:101B100033401940E81A3798B3627A4F52478F43DF
:101B2000C141DF406F4037401B40651945A19765B3
:101B3000A250D647CE43E041EE4076403B401D40A8
:101B4000F917DCAA9268CE515B480D44FE41FD4076
:101B50007E403E401F40A01604B5A26BFF52E148F4
:101B60004C441D420C418540424021405B15C8BF9A
:101B7000C96E345469498B443B421B418D404640F9
:101B8000234028142FCB08726E55F149CA445A429B
:101B90002A4194404A402540061344D76075AC560C
:101BA0007A4A0A45784239419C404D402640F51119
:101BB00011E4D078EE57044B4A4597424841A34080
:101BC00051402840F310A1F15B7C36598F4B8A4578
:101BD000B6425741AA4055402A400010FFFF0080FE
:101BE000825A1B4CCA45D5426641B2402C405840EF
:101BF0001F921F931127662321F480E090E40C9438
:101C0000F00E6A9576E1679FF001E052F64EA591DD
:101C1000B5916591759195FF13C0A69F9001B79FEF
:101C2000A001A79F300D411D511FB69F300D411DD2
:101C3000511F330F441F551F330F441F551FDA0127
:101C40006591759194FF13C0A69F9001B79FA00165
:101C5000A79F300D411D511FB69F300D411D511FD3
:101C6000330F441F551F330F441F551FDA01659171
:101C7000759193FF13C0A69F9001B79FA001A79FE6
:101C8000300D411D511FB69F300D411D511F330FA7
:101C9000441F551F330F441F551FDA01659175917D
:101CA00092FF13C0A69F9001B79FA001A79F300D80
:101CB000411D511FB69F300D411D511F330F441F51
:101CC000551F330F441F551FDA016591759191FF20
:101CD00013C0A69F9001B79FA001A79F300D411D83
:101CE000511FB69F300D411D511F330F441F551F0B
:101CF000330F441F551FDA016591759190FF13C092
:101D0000A69F9001B79FA001A79F300D411D511FB5
:101D1000B69F300D411D511F330F441F551F330F08
:101D2000441F551FDA016591759187FF13C0A69F67
:101D30009001B79FA001A79F300D411D511FB69F75
:101D4000300D411D511F330F441F551F330F441FCA
:101D5000551FDA016591759186FF13C0A69F90010A
:101D6000B79FA001A79F300D411D511FB69F300D99
:101D7000411D511F330F441F551F330F441F551F63
:101D8000DA016591759185FF13C0A69F9001B79FF9
:101D9000A001A79F300D411D511FB69F300D411D61
:101DA000511F330F441F551F330F441F551FDA01B6
:101DB0006591759184FF13C0A69F9001B79FA00104
:101DC000A79F300D411D511FB69F300D411D511F62
:101DD000330F441F551F330F441F551FDA01CD0128
:101DE0001F911F900895F8940F920FB60F920090D4
:101DF00002010A94A1F000920201EF93FF9300FE0A
:101E000016C0E0910101F2E001900EBCE0930101E7
:101E1000FF91EF910F900FBE0F907894189500925C
:101E200002012A9A0F900FBE0F90789418952A9A63
:101E3000E09101012A98F2E001900EBCE0930101CB
:101E4000FF91EF910F900FBE0F907894189590919D
:101E50000201E091000191110AC0F2E06193E09368
:101E6000000192E0909302012A988EBD0895F2E05D
:101E70008083E3956193E09300019E5F909302015C
:101E80000895F89490910201E09100017BE1911195
:101E90000FC02A98F2E07EBD8083E3956083E395CE
:101EA0004193E093000194E09093020178940895A7
:101EB000F2E07083E3958083E3956083E39541933B
:101EC000E09300019C5F90930201789408958091C3
:101ED00002018823E1F70895F89490910501789420
:101EE000903051F4909184009630B0F799279093F8
:101EF00084000E94A40FF0CFF894909105019A9568
:101F000090930501E0910401F3E08191E0930401D5
:101F100078940895F8940F920FB60F92EF93FF9371
:101F2000E0910301F3E00090C6000192E093030109
:101F300000900501039400920501FF91EF910F902D
:101F40000FBE0F9078941895CF93DF9320E130E087
:101F50002A95F901E050FC4F5081503009F447C0F8
:101F6000515009F05083E901C05DDB4F5881508327
:101F7000488958A1540F5F7358A348A980E2489F2D
:101F8000F001E50FEE55FE4F4491E901C05FDB4FD4
:101F9000588153955F735883540F5F734889489FE6
:101FA000F001E50FEE55FE4F8491C9E02C9FE00152
:101FB000C050D84FEB81F1E1FE9FE001C051D94FF5
:101FC0005D854E85480F403822F087FD5A9587FF82
:101FD0005395F8948BE0622F0E94270F82E1652FC2
:101FE0000E94270F83E1642F0E94270F78942150CD
:101FF00008F0AFCFDF91CF910895F8940FB6809598
:1020000099E0F89408940C9409107BE27A95F1F722
:10201000869508F05A9A08F45A989A95B1F77BE297
:102020007A95F1F75A9A7BE27A95F1F70FBE789498
:1020300008950FB680E8F8941E99FECF1E9BFECF40
:1020400096E19A95F1F79CE29A95F1F786951E9B99
:102050008068C8F70FBE089581918EBD84918491E8
:102060000000089584918491000000000895CF93AA
:10207000C82F8A3099F0E091A304F091A40430971E
:1020800049F0CF0101969093A4048093A304C083E8
:10209000CF9108958C2FCF910C94FD0FA091A304A4
:1020A000B091A404109749F0FD013196F093A40477
:1020B000E093A3048DE08C93E2CF8DE00E94FD0FAE
:1020C000DACF0F931F93CF93DF9321E1829FC0015B
:1020D0001124FC01E051F94F6387C785D08920970F
:1020E00071F0062F10E08881A80160E170E090E0B7
:1020F0000E94410F0E80DF81C02D2097A1F7DF9154
:10210000CF911F910F9108950F931F93CF93DF935A
:1021100021E1829FC0011124FC01E051F94F638746
:10212000C785D089209771F0062F10E08881A8011B
:1021300060E170E090E00E94410F0E80DF81C02DD1
:102140002097A1F7DF91CF911F910F9108950F93E1
:102150001F93CF93DF9321E1829FC0011124FC01E3
:10216000E051F94F6487C785D089209771F0062F19
:1021700010E08881A80161E170E090E00E94410FC9
:102180000E80DF81C02D2097A1F7DF91CF911F91A5
:102190000F9108950F931F93CF93DF938C01C62F58
:1021A00080910601813009F465C0833061F0F80147
:1021B000EE58FB4F8081861709F445C0DF91CF911F
:1021C0001F910F91089508301105C4F7A8015527F4
:1021D000E1E10E9FC0011124FC01E051F94FA785F8
:1021E000B089109789F012962C911297621306C04D
:1021F000E1C08281C81709F491C0DF011696ED9104
:10220000FC9117973097A9F7085F202F30E0F1E194
:102210000F9F80011124F801E051F94FA785B08983
:10222000109761F212968C911297C81305C0BDC029
:102230008281C817F1F1DF011696ED91FC91179795
:102240003097B1F7BBCFC8019927FC01EE0FFF1FF4
:10225000EE0FFF1FEE0FFF1FE80FF91FE050F84FC2
:10226000418150E06FE070E0DF91CF911F910F91BD
:102270000C94410F9801332781E1089F80011124BC
:10228000F801E051F94FA785B089109709F496CF6E
:1022900012968C911297681305C087C08281C81767
:1022A00041F0DF011696ED91FC9117973097B1F749
:1022B00085CFED01269681E1829FD001839FB00DED
:1022C0001124A051B94F11968C91813011F13081B8
:1022D000832F90E04681578159834883E091B7046A
:1022E00021E02E0F2093B704F0E0EB55FB4F308335
:1022F000203189F02091B5043091B6042150310984
:102300003093B6042093B5048F3F910509F09DCF1B
:1023100055CF858353CF1092B704ECCF9D012A5F30
:102320003F4F81E1849FD001859FB00D1124A051C2
:10233000B94F11968C918130B1F14081842F90E09A
:1023400066817781F90171836083E091B70421E0B0
:102350002E0F2093B704F0E0EB55FB4F4083203164
:1023600011F41092B7042091B5043091B6042150B5
:1023700031093093B6042093B5048F3F910509F4D9
:1023800043CFFC01EE0FFF1FEE0FFF1FEE0FFF1FED
:10239000E80FF91FE050F84F418150E06FE070E026
:1023A0000E94410F31CF85832FCFE801C150D94F13
:1023B000FD0181CF9C012150394FFD01B2CFAF9279
:1023C000BF92CF92DF92EF92FF920F93CF93DF9362
:1023D0001F92CDB7DEB7E42EA62FB0E0FD01EE5878
:1023E000FB4F4083F894FD01EE0FFF1FEE0FFF1F20
:1023F000EE0FFF1FEA0FFB1FE050F84F1086FD01A4
:10240000E050FC4F94E69083FD01E05FFB4F962F78
:1024100093709083AD01405D5B4F5A0191E1899FBC
:10242000A0011124FA01E051F94F6F018281F501F9
:102430008083AD01405E5B4FF6018381FA018083AA
:10244000FD01E05BFB4F1082AD01405C5B4FF6018C
:102450008481FA018083A05ABB4FF60185818C9359
:102460008BE029830E94270F2981622F6C778CE0F3
:102470000E94270FF12CF701EE5DF94F64918DE07A
:102480000E94270FF701EE55FA4F64918EE00E94EB
:10249000270FF601638580E10E94270FF60164850E
:1024A00081E10E94270FF601658582E10E94270FD6
:1024B000F601668583E10E94270F602F60648FE03C
:1024C0000E94270F78940F90DF91CF910F91FF908A
:1024D000EF90DF90CF90BF90AF9008952F923F92F2
:1024E0004F925F926F927F928F929F92AF92BF9224
:1024F000CF92DF92EF92FF920F931F93CF93DF93D0
:10250000CDB7DEB76F970FB6F894DEBF0FBECDBF65
:10251000FE01F49621903190FA8FE98F9E012F5F92
:102520003F4F490171013FEFE31AF30AD1011C91BA
:102530001123E1F0153299F11A3009F485C2E091C6
:10254000A304F091A404309709F474C2CF0101965A
:102550009093A4048093A3041083170171013FEFAB
:10256000E31AF30AD1011C911111E4CF6F960FB653
:10257000F894DEBF0FBECDBFDF91CF911F910F91B9
:10258000FF90EF90DF90CF90BF90AF909F908F9093
:102590007F906F905F904F903F902F900895F10142
:1025A0008181803309F4FFC18D3209F435C232E0F4
:1025B000230E311C1C8E1B8E54E040E0A12CB12C4C
:1025C00090ED980F00E010E09A30D8F49801220FB7
:1025D000331F000F111F000F111F000F111F020FDB
:1025E000131F080F111D87FD1A95005311093FEFA6
:1025F000231A330AF1013197808190ED980F9A30B8
:1026000028F3982F9F7D9C34C9F020E030E0882388
:1026100009F4ACCF81360CF4B7C190EE980F492F76
:10262000092E000C550B660B770BFA01E254F109E9
:10263000E731F10568F00E94371074CFD1018C9119
:10264000A52EB42EF10131961F0124E030E0DFCF3A
:10265000EC5CFF4F0C944C2B232B09F0C0C1BAE06B
:102660004B2E512C612C712C943409F0D2C0E98D81
:10267000FA8D40815181052E000C660B770B329646
:10268000FA8FE98F77FD0BC2AAE04A2E512C612CFC
:10269000712CE42FF72F6401E12CF12C5E8F6F8FEA
:1026A000883731F44AC1B8E1EB16F10409F4A7C147
:1026B0006E2F7E8D8F8D9F2FA30192010E942A2B5A
:1026C000E22F3E8F4F8FF52F6A30710581059105FE
:1026D00008F0695F8FEFE81AF80A605DD6016D9324
:1026E0006D01232B242B252BF1F6C7010196A4FEA7
:1026F00006C0F401EE0DFF1D2DE220837C01A0FE3B
:102700005FC170E3B72EE0E3AE2EE091A304F09139
:10271000A4042B8D3C8D232B09F05FC19701690127
:102720008FEFC81AD80A20173107A0F4309709F4A0
:1027300022C19F012F5F3F4F3093A4042093A30435
:10274000A082F901960169018FEFC81AD80A2017F3
:10275000310760F3E80CF91C0FC09F012F5F3F4F5A
:102760003093A4042093A3049083E814F90491F017
:10277000E091A304F091A404D7019E917D019A30C9
:1027800009F404C1309749F7892F0E94FD0FE8141E
:10279000F90471F776010BC0CF0101969093A40460
:1027A0008093A30480E28083BFEFEB1AFB0AE0165C
:1027B000F10608F0B7CEE091A304F091A40430979D
:1027C00059F780E20E94FD0FEFCF42E0442E512CDA
:1027D000612C712C232BE9F0E98DFA8D4081518118
:1027E000628173813496FA8FE98F53CF098D1A8DE8
:1027F0000E5F1F4FE98DFA8D80810E9437101A8F6E
:10280000098F90CE90E1492E512C612C712C232BF5
:1028100019F7A98DBA8D4D915C91119760E070E028
:102820001296BA8FA98F35CFE98CFA8CF2E0EF0EB1
:10283000F11CA98DBA8DCD90DC90F60180818823A2
:1028400009F449C13196A12CB12C2FEFA21AB20A7A
:1028500081918111FACF8B8D9C8D892BF9F43501F3
:102860009FEF691A790AA016B106B8F4E091A304A3
:10287000F091A404309709F4E2C0CF01019690933F
:10288000A4048093A30480E28083530135019FEF69
:10289000691A790AA016B10648F353013801D60126
:1028A0001D916D011123B1F01A3009F4E0C0E091DF
:1028B000A304F091A404309709F4D5C0CF01019688
:1028C0009093A4048093A3041083D6011D916D01FD
:1028D0001111EACF83010BC0CF0101969093A4049C
:1028E0008093A30480E28083BFEFAB1ABB0AA016DB
:1028F000B10608F0CBC0E091A304F091A404309796
:1029000059F780E20E94FD0FEFCF232B09F4C1C0DD
:10291000A98DBA8D4D915D916D917C91139714960F
:10292000BA8FA98F38E0432E512C612C712CB1CE77
:10293000B8E1EB16F10409F462C06E2F7E8D8F8D25
:102940009F2FA30192010E942A2BE22F3E8F4F8FCF
:10295000F52F6A3071058105910508F0695D8FEFEB
:10296000E81AF80A605DD6016D936D01232B242BC4
:10297000252BF1F6BACE8B2D0E94FD0FE091A3041A
:10298000F091A4049601DFCE982F49CE3097D1F173
:102990009F012F5F3F4F3093A4042093A3048DE049
:1029A0008083F901EFCE828191012D5F3F4F1901A4
:1029B0001C8E1B8E55E040E0AA24A394B12C00CEBF
:1029C00050E2B52E60E2A62EE091A304F091A4049B
:1029D0002B8D3C8D232B09F4A1CE6701BBCE298D15
:1029E0003A8D2C5F3F4FA98DBA8D4D915D916D91C0
:1029F0007C913A8F298F943409F046CE43CE89E1F9
:102A000090E075CE8DE09D8F0E94FD0FE091A304B4
:102A1000F091A4049D8DB6CE8281F10133961F0101
:102A200022E030E03C8F2B8F56E040E072E0A72E92
:102A3000B12CC6CD812F0E94FD0F170173CD80E20E
:102A40000E94FD0F530122CFA091A304B091A404D2
:102A50001097C9F1FD013196F093A404E093A3040B
:102A60008DE08C9370CD812F0E94FD0F18CFA09127
:102A7000A304B091A404109751F1FD013196F09395
:102A8000A404E093A3048DE08C9315CFFA8EE98E15
:102A900049CD28E0422E512C612C712CBACE709574
:102AA0006095509541955F4F6F4F7F4FFAE04F2EE5
:102AB000512C612C712CF501E270FF27FC8FEB8FFC
:102AC0006894A4F8E6CD8DE00E94FD0F38CD8DE02E
:102AD0000E94FD0FECCEA12CB12CBDCE40E150E008
:102AE0006FE770E083E994E00E94522B40E150E0F0
:102AF0006FE770E083E894E00E94522B40E150E0E1
:102B000068E070E080E294E00E94522B40E150E0E7
:102B100068E270E080E394E00E94522B80E1E0E004
:102B2000F4E0DF01982F1D929A95E9F7E0E1F4E0D7
:102B3000DF01982F1D929A95E9F7E0E5F4E0DF01B7
:102B40001D928A95E9F740E150E063E070E080E48F
:102B500094E00E94522B40E150E065E070E080E696
:102B600094E00E94522B1092B8041092B704109275
:102B7000B6041092B50410920008109201082FE7D5
:102B8000209303089FEF9093020880E2809304084B
:102B90001092070810920608109208081092A504D7
:102BA00031E03093090830930A0820930C08909381
:102BB0000B0880930D081092100810920F081092C5
:102BC00011083093A60432E03093120830931308B2
:102BD00020931508909314088093160810921908F2
:102BE0001092180810921A083093A70433E030931B
:102BF0001B0830931C0820931E0890931D08809397
:102C00001F08109222081092210810922308309376
:102C1000A80434E030932408309325082093270833
:102C2000909326088093280810922B0810922A0867
:102C300010922C083093A90435E030932D0830937E
:102C40002E082093300890932F088093310810921B
:102C5000340810923308109235083093AA0436E0F5
:102C6000309336083093370820933908909338080A
:102C700080933A0810923D0810923C0810923E084A
:102C80003093AB0437E030933F08309340082093F3
:102C9000420890934108809343081092460810928E
:102CA0004508109247083093AC0438E03093480848
:102CB0003093490820934B0890934A0880934C081E
:102CC00010924F0810924E08109250083093AD04A5
:102CD00039E0309351083093520820935408909370
:102CE0005308809355081092580810925708109274
:102CF00059083093AE043AE030935A0830935B0899
:102D000020935D0890935C0880935E0810926108A0
:102D100010926008109262083093AF043BE0309349
:102D20006308309364082093660890936508809345
:102D3000670810926A081092690810926B08309325
:102D4000B0043CE030936C0830936D0820936F081A
:102D500090936E0880937008109273081092720816
:102D6000109274083093B1043DE0309375083093AD
:102D700076082093780890937708809379081092CA
:102D80007C0810927B0810927D083093B2043EE0DC
:102D900030937E0830937F082093810890938008B9
:102DA00080938208109285081092840810928608F9
:102DB0003093B3043FE03093870830938808209322
:102DC0008A089093890880938B0810928E0810923D
:102DD0008D0810928F083093B404EEEFF6E080E097
:102DE00072E36AE054E098E142E030E328E0DF017A
:102DF0001E978C9311961C9211967C9311966C934E
:102E000011961C9211965C9311961C9211969C93AC
:102E100011969C9311964C931282118212963C93B8
:102E200011961C9211962C9310828F5F71968031AF
:102E3000F1F6809382040895F89460E08FE00E9498
:102E4000270F78940895CF93DF93D82FC62FF89447
:102E500060E08BE00E94270F64E58CE00E94270F62
:102E60006D2F8DE00E94270F6C2F8EE00E94270FA0
:102E700060E48FE00E94270F7894DF91CF9108954E
:102E8000F89466E188E00E94270F60E088E00E94E5
:102E9000270F78940E94670F2A98F89487E08EBDD8
:102EA0000DB407FEFDCF8EB580E98EBD0DB407FED3
:102EB000FDCF8EB5E9EBF4E081918EBD0DB407FE38
:102EC000FDCF8EB586E0E939F807B1F780E88EBD11
:102ED0000DB407FEFDCF8EB583E08EBD0DB407FEA9
:102EE000FDCF8EB581E88EBD0DB407FEFDCF8EB54A
:102EF00080E88EBD0DB407FEFDCF8EB52A9A78947A
:102F000008952F923F924F925F926F927F928F928D
:102F10009F92AF92BF92CF92DF92EF92FF920F9368
:102F20001F93CF93DF93CDB7DEB760970FB6F894BA
:102F3000DEBF0FBECDBF29982FEF81EE94E0215068
:102F400080409040E1F700C00000299AEFE3FCE9DF
:102F50003197F1F700C0000029982A9A2A9AFFEFCA
:102F600021EE84E0F15020408040E1F700C00000F5
:102F7000F89460E08DE10E94270F6EE082E00E94ED
:102F8000270F78940E94670FEFE9FFE03197F1F780
:102F900000C00000F89461E080E00E94270F60E02C
:102FA00081E00E94270F63EA8AE10E94270F78944C
:102FB0000E94670F8FE99FE00197F1F700C00000C2
:102FC000F89460E08AE10E94270F78940E94670FCE
:102FD0009FEFE6E7F1E09150E040F040E1F700C0FC
:102FE0000000F89460E082E00E94270F6CEA89E11B
:102FF0000E94270F6FE38BE10E94270F60E08BE1B7
:103000000E94270F60E084E10E94270F61E083E0C7
:103010000E94270F66EF88E00E94270F78940E9495
:10302000670F2FE786E091E0215080409040E1F764
:1030300000C00000F89460E088E00E94270F60ED77
:1030400089E00E94270F60E08BE00E94270F60E478
:1030500087E10E94270F60E088E10E94270F6FE060
:1030600080E20E94270F78940E94670FE5E3EA95BB
:10307000F1F70000F8946FE081E20E94270F789446
:103080000E94670FF5E3FA95F1F70000F8946FE0FE
:1030900082E20E94270F78940E94670F25E32A9509
:1030A000F1F70000789489EB94E0988B8F87EAEB36
:1030B000F4E0FC87EB878BEB94E09A878987ECEB55
:1030C000F4E0F887EF838DEB94E09E838D83EEEB45
:1030D000F4E0FC83EB838FEB94E09A83898380ECAC
:1030E000882E84E0982E91ECA92E94E0B92E22EC43
:1030F00034E043EC242E44E0342E54ECC52E54E04E
:10310000D52E65ECE62E64E0F62E06EC14E0612C7C
:10311000712C70E1472EE0E45E2E40E050E064E167
:1031200070E0C3012D873E870E94410F81E0EF854B
:10313000F889808383E8EB85FC858083E985FA85BF
:1031400010828FE7EF81F885808384EFED81FE8127
:1031500080838BEBEB81FC818083E981FA81108293
:10316000F4014082F50150822D853E85F9011082DF
:103170008FEAF101808380EAF60180838EE0F70117
:10318000808383E0F8018083EF85F889468657863F
:10319000108A8FE2818B93EF928B8BE9838B148A59
:1031A00080E2858B81E4868B178A8FE7808F90EA97
:1031B000918F8EE0828F91E0938F448E558EEFEF4A
:1031C0006E1A7E0A8F8598894E96988B8F87EB852D
:1031D000FC857E96FC87EB8789859A854E969A8733
:1031E0008987EF81F8857E96F887EF838D819E81B0
:1031F0004E969E838D83EB81FC817E96FC83EB83D0
:1032000089819A814E969A8389839EE1890E911CC9
:10321000EEE1AE0EB11C225E3F4FFEE12F0E311CDF
:103220008EE1C80ED11C9EE1E90EF11C025E1F4F1B
:10323000E0E16E16710409F070CF0E944017FFEFB5
:1032400025EA8EE0F15020408040E1F700C0000008
:1032500060960FB6F894DEBF0FBECDBFDF91CF9161
:103260001F910F91FF90EF90DF90CF90BF90AF90A4
:103270009F908F907F906F905F904F903F902F9096
:103280000895AF92BF92CF92DF92EF92FF920F9389
:103290001F93CF93DF93D42F122F803B09F4B8C034
:1032A00010F5803809F4A4C0803991F4C62FCF708E
:1032B000CC2ED12C222309F40EC48091060181303A
:1032C00009F481C5833009F042C4C83008F4F8C05D
:1032D000DF91CF911F910F91FF90EF90DF90CF90F2
:1032E000BF90AF900895803C09F4A0C0803E81F764
:1032F0006F70E62E262F30E090910601913009F490
:1033000024C5933009F0AAC0F7E0F61708F380E867
:10331000189F60011124C42A81E1829FE001839FEC
:10332000D00D1124C051D94F6985C6010E94F80DF6
:10333000092F0695069506950D8795958795959580
:10334000879595958795959587958F779927F82EE9
:103350008E870F84D889C02D209799F0F8946881C2
:103360008BE00E94270F602F82E10E94270F6F2DB4
:1033700083E10E94270F78940E80DF81C02D209773
:1033800069F768E06E0D91E1699FE0011124C05179
:10339000D94F6985C6010E94F80D192F169516950B
:1033A00016951D87959587959595879595958795FC
:1033B000959587958F779927082F8E870F84D889C1
:1033C000C02D209709F484CFF89468818BE00E9487
:1033D000270F612F82E10E94270F602F83E10E9457
:1033E000270F78940E80DF81C02D209769F770CF6A
:1033F000862F8F70642F90E0DF91CF911F910F91F6
:10340000FF90EF90DF90CF90BF90AF900C94CA10D8
:10341000C62FCF708C2F90E050E04A37510508F04E
:1034200057CFFA01E55BFF4F0C944C2B862F8F7022
:10343000282F30E090919906913009F45EC39230C4
:1034400009F493C381E1829FD001839FB00D1124C1
:10345000A051B94FE42FEF70EC933ACF81E1829FF6
:10346000D001839FB00D1124A051B94F20E8120361
:10347000C0011124E42F440FFF0B19966C918E2B81
:103480009F2B0E94F80DEC01F8946E2D8BE00E94AA
:10349000270F6D2F66956695669582E10E94270F2E
:1034A000BE01759567957595679575956795759541
:1034B00067956F77772783E10E94270F789408CF6D
:1034C00081E18C9DF0018D9DF00D1124E051F94FAB
:1034D000E784F088E114F10441F468C3F701E68061
:1034E000F780E114F10409F461C3F7018281D81374
:1034F000F5CF808190E0FC01EE0FFF1FEE0FFF1F64
:10350000EE0FFF1FE80FF91FE050F84F418150E028
:10351000405E5F4F6FE070E00E94410FDFCFFC0123
:10352000ED57FB4F2083FC01ED56FB4F208121110D
:10353000CFCEFC01ED57FB4F20812111C9CE21E1F7
:10354000289FF001299FF00D1124E051F94F1187B8
:1035500030910601333009F0BBCEC83008F0B8CE48
:103560000896289FF001299FF00D1124E051F94F92
:103570001187AECEFC01ED56FB4F2083A9CE21E191
:10358000289FF001299FF00D1124E051F94F12827C
:103590009FCE12951F7020910601213009F4FCC4C2
:1035A000233009F0C5C4C83008F092CE612F8C2FAB
:1035B0000E94A710612F88E08C0FDF91CF911F919F
:1035C0000F91FF90EF90DF90CF90BF90AF900C9451
:1035D000A710822F8370809399067ACE21E1289FCD
:1035E000F001299FF00D1124E051F94F138270CEA4
:1035F00021E1289FF001299FF00D1124E051F94F9E
:10360000158266CE21E1289FF001299FF00D11243B
:10361000E051F94F14825CCE1695169521E1289F52
:10362000F001299FF00D1124E051F94F1087E78137
:10363000F0E030E2139FE00DF11D1124EE55FA4E3B
:103640004491D42FDD0FDD0F20910601213009F4C4
:10365000BFC4233009F056C4C83008F039CE6D2FEE
:103660008C2F0E9461106D2F88E08C0FDF91CF911D
:103670001F910F91FF90EF90DF90CF90BF90AF9090
:103680000C9461101695169521E1289FF001299F51
:10369000F00D1124E051F94F1783E085F0E020E2AE
:1036A000129FE00DF11D1124EE55FA4E4491D42FD6
:1036B000DD0FDD0F20910601213009F486C423308F
:1036C00009F020C4C83008F003CE6D2F8C2F0E9463
:1036D00084106D2F88E08C0FDF91CF911F910F9197
:1036E000FF90EF90DF90CF90BF90AF900C9484103C
:1036F0004091820414160CF0EBCD042E000C550BF7
:1037000020E030E080E091E1929FF001939FF00D86
:103710001124E051F94F13828F5F282F30E02417D6
:10372000350794F3D5CD4091820414160CF0D0CD1A
:10373000042E000C550B20E030E080E091E1929FD8
:10374000F001939FF00D1124E051F94F15828F5F26
:10375000282F30E02417350794F3BACD4091820426
:1037600014160CF0B5CD042E000C550B20E030E003
:1037700080E091E1929FF001939FF00D1124E051C0
:10378000F94F14828F5F282F30E02417350794F308
:103790009FCD21E1289FE001299FD00D1124FE013A
:1037A000E051F94F1182C150D94FE881F98130972A
:1037B00009F48ECD8581813009F472C3EF0126961C
:1037C000E881F9813097B1F783CD01E018E0C0E0DE
:1037D000D0E0F801408150E0405E5F4F6FE070E064
:1037E000CE010E94410F2196075F1F4FC031D105C6
:1037F00081F71092B8041092B7041092B604109298
:10380000B50410920008109201082FE720930308D6
:103810009FEF9093020880E28093040810920708BB
:1038200010920608109208081092A50431E0309317
:10383000090830930A0820930C0890930B08809392
:103840000D081092100810920F0810921108309372
:10385000A60432E030931208309313082093150821
:103860009093140880931608109219081092180863
:1038700010921A083093A70433E030931B0830935A
:103880001C0820931E0890931D0880931F08109217
:10389000220810922108109223083093A80434E0E3
:1038A0003093240830932508209327089093260806
:1038B0008093280810922B0810922A0810922C0846
:1038C0003093A90435E030932D0830932E082093CF
:1038D000300890932F08809331081092340810928A
:1038E0003308109235083093AA0436E03093360836
:1038F00030933708209339089093380880933A081A
:1039000010923D0810923C0810923E083093AB0490
:1039100037E030933F08309340082093420890935B
:10392000410880934308109246081092450810926F
:1039300047083093AC0438E0309348083093490886
:1039400020934B0890934A0880934C0810924F089C
:1039500010924E08109250083093AD0439E0309325
:103960005108309352082093540890935308809341
:103970005508109258081092570810925908309321
:10398000AE043AE030935A0830935B0820935D0808
:1039900090935C0880935E08109261081092600812
:1039A000109262083093AF043BE030936308309389
:1039B00064082093660890936508809367081092C6
:1039C0006A081092690810926B083093B0043CE0CA
:1039D00030936C0830936D0820936F0890936E08B5
:1039E00080937008109273081092720810927408F5
:1039F0003093B1043DE030937508309376082093FE
:103A00007808909377088093790810927C08109238
:103A10007B0810927D083093B2043EE030937E081C
:103A200030937F08209381089093800880938208C8
:103A30001092850810928408109286083093B3047F
:103A40003FE0309387083093880820938A0890934A
:103A5000890880938B0810928E0810928D0810921E
:103A60008F083093B404EEEFF6E080E072E36AE092
:103A700054E098E142E030E328E0DF011E978C93A8
:103A800011961C9211967C9311966C9311961C9230
:103A900011965C9311961C9211969C9311969C938F
:103AA00011964C931282118212963C9311961C929D
:103AB00011962C9310828F5F71968031F1F6DF9111
:103AC000CF911F910F91FF90EF90DF90CF90BF901B
:103AD000AF900C946E15642FC6010E94CA10C0E00E
:103AE000D0E040E050E06FE070E0CE010E94410F76
:103AF0002196C031D105A9F7EBCB91E1929FF0015E
:103B0000939FF00D1124E051F94F80832EE1429FE5
:103B1000F0011124EE55F94F3EE1839FC0011124BD
:103B2000DC01A754BB4F89529B4F24912D933196B2
:103B3000A817B907D1F7DF91CF911F910F91FF908F
:103B4000EF90DF90CF90BF90AF900C94401781E141
:103B50008C9DF0018D9DF00D1124E051F94F0081F5
:103B60006C2F8C2F0E94DF11B3CBE42FEF7190E20A
:103B7000E99F80011124EEE18E9FC0011124EC0128
:103B8000C754DB4F9C0129523B4F7901095B14401C
:103B9000081B190BF999FECFC8018C0F9D1F0E94BD
:103BA000142B8993CE15DF05A9F7C5CF8091B504F5
:103BB0009091B6048031910509F4C2C1E091B80436
:103BC00021E02E0F2093B804F0E0EB55FB4FE0808E
:103BD000203109F4A7C101969093B6048093B504EF
:103BE000F12CF701EE0FFF1FEE0FFF1FEE0FFF1F6F
:103BF000EE0DFF1DE050F84F81E18C9DD0018D9DB1
:103C0000B00D1124A051B94F8C918183D283C3830D
:103C100014831F968D919C9150979783868315826C
:103C20005096FC93EE931F9701E1F02EFC9CF0015F
:103C3000FD9CF00D1124E051F94F0081212F4D2FF3
:103C40006E2D8C2F0E94DF11C85FAC2EB12CFA9C18
:103C5000F001FB9CF00D1124E051F94FE784F0884E
:103C6000E114F10439F420C0F701E680F780E11493
:103C7000F104D1F0F7018281D813F6CF808190E072
:103C8000FC01EE0FFF1FEE0FFF1FEE0FFF1FE80FEF
:103C9000F91FE050F84F418150E0405E5F4F6FE008
:103CA00070E00E94410FE0CF8091B5049091B6047E
:103CB0008031910509F45AC1E091B80421E02E0F3A
:103CC0002093B804F0E0EB55FB4FE080203109F47D
:103CD0002CC101969093B6048093B504F12CF701A2
:103CE000EE0FFF1FEE0FFF1FEE0FFF1FEE0DFF1D6C
:103CF000E050F84F81E18A9DD0018B9DB00D1124D9
:103D0000A051B94F8C918183D283C38314831F96B2
:103D10008D919C9150979783868315825096FC9342
:103D2000EE931F97F8E0CF0ED11C81E18C9DF0013E
:103D30008D9DF00D1124E051F94F0081212F4D2F61
:103D40006E2D8C2F0E94DF11C3CA41E1429FC0013A
:103D5000439F900D11249C012051394F790130E887
:103D6000139FC0011124F70161858D2B0E94F80D6E
:103D7000192F169516951695F70115879595879520
:103D80009595879595958795959587958F7799279B
:103D9000082F8687C785D089209709F499CAF89497
:103DA00068818BE00E94270F612F82E10E94270F1C
:103DB000602F83E10E94270F78940E80DF81C02D51
:103DC000209769F785CA81E18C9DF0018D9DF00DEA
:103DD0001124E051F94FE784F088E114F10439F43B
:103DE00020C0F701E680F780E114F104D1F0F7017B
:103DF0008281D813F6CF808190E0FC01EE0FFF1F87
:103E0000EE0FFF1FEE0FFF1FE80FF91FE050F84FF6
:103E1000418150E0405E5F4F6FE070E00E94410FD3
:103E2000E0CF8091B5049091B6048031910509F4FA
:103E3000B6C0E091B80421E02E0F2093B804F0E062
:103E4000EB55FB4FE080203109F477C00196909349
:103E5000B6048093B504F12CF701EE0FFF1FEE0FAF
:103E6000FF1FEE0FFF1FEE0DFF1DE050F84F81E129
:103E70008C9DD0018D9DB00D1124A051B94F8C9116
:103E80008183D283C38314831F968D919C91509715
:103E90009783868315825096FC93EE931F9745CFA8
:103EA0001081812F90E0FC01EE0FFF1FEE0FFF1F2E
:103EB000EE0FFF1FE80FF91FE050F84F418150E06F
:103EC0006FE070E00E94410FE881F981868197815F
:103ED00099838883E091B70481E08E0F8093B704C3
:103EE000F0E0EB55FB4F1083803111F41092B704D2
:103EF0008091B5049091B60401979093B604809395
:103F0000B50453CC4D2F50E060E170E0DF91CF91CC
:103F10001F910F91FF90EF90DF90CF90BF90AF90E7
:103F20000C94410F1092B80456CE1092B804D1CE22
:103F3000412F50E061E170E0E9CF1092B80486CFE4
:103F4000E090B804F12CF701EE0FFF1FEE0FFF1FFA
:103F5000EE0FFF1FEE0DFF1DE050F84F418150E0C6
:103F60006FE070E0C7010E94410F5ECEE090B804A0
:103F7000F12CF701EE0FFF1FEE0FFF1FEE0FFF1FDB
:103F8000EE0DFF1DE050F84F418150E06FE070E012
:103F9000C7010E94410FC6CE612F8C2F0ECBE0903F
:103FA000B804F12CF701EE0FFF1FEE0FFF1FEE0F0D
:103FB000FF1FEE0DFF1DE050F84F418150E06FE014
:103FC00070E0C7010E94410FB0CE6D2F8C2F84CBC3
:103FD0006D2F8C2F4BCB1F920F920FB60F92112487
:103FE0002F933F938F939F93AF93BF938091EC0652
:103FF0009091ED06A091EE06B091EF063091EB06A0
:1040000023E0230F2D3768F126E8230F0296A11D28
:10401000B11D2093EB068093EC069093ED06A093E0
:10402000EE06B093EF068091E7069091E806A09126
:10403000E906B091EA060196A11DB11D8093E7063D
:104040009093E806A093E906B093EA06BF91AF917A
:104050009F918F913F912F910F900FBE0F901F90C6
:1040600018950196A11DB11DD4CFCF93DF93CDB785
:10407000DEB72B970FB6F894DEBF0FBECDBF789496
:1040800084B5826084BD84B5816084BD85B582605D
:1040900085BD85B5816085BD80916E00816080930E
:1040A0006E00109281008091810082608093810077
:1040B0008091810081608093810080918000816087
:1040C000809380008091B10084608093B1008091E2
:1040D000B00081608093B00080917A00846080930A
:1040E0007A0080917A00826080937A0080917A00D1
:1040F000816080937A0080917A00806880937A0052
:104100001092C1008AB18C608AB91092C5001092D9
:10411000C4008091C00082608093C00086E08093DC
:10412000C20088E98093C1001092C5001092C400BB
:1041300080E58CBD81E08DBD8FEF83B98CE085B9C2
:104140008CE284B98CB580688CBD2FEF32E547E0F6
:10415000215030404040E1F700C000005FEF82E5B1
:1041600097E0515080409040E1F700C000000E946D
:104170008117AFEFB1EEE4E0A150B040E040E1F7CD
:1041800000C0000061E18CE10E942317FFEF26E7E9
:1041900031E0F15020403040E1F700C000000E94C3
:1041A0001C178FE39CE90197F1F700C0000062E45F
:1041B0008CE10E9423179FEFA6E7B1E09150A04049
:1041C000B040E1F700C000000E941C17EFE3FCE9DB
:1041D0003197F1F700C000006DE58CE10E942317D4
:1041E000FFEF26E731E0F15020403040E1F700C01A
:1041F00000000E941C178FE39CE90197F1F700C0B3
:10420000000067E184E20E9423179FEFA6E7B1E078
:104210009150A040B040E1F700C000000E941C1780
:104220000E946E1588E890E0909389008093880042
:104230001092800088E080938100809181008460EA
:104240008093810078940E946E158091B5049091BE
:10425000B6040F970CF055C08091B704882309F479
:104260004CC08150282F30E0682FF901EB55FB4FEF
:10427000808190E0FC01EE0FFF1FEE0FFF1FEE0F9D
:10428000FF1F8E0F9F1FFC01E050F84F708550916B
:10429000B8042BC09FEF960FA92FB0E0AB55BB4FD2
:1042A0004C91242F30E07901EE0CFF1CEE0CFF1C2A
:1042B000EE0CFF1C8701020F131F0050184FF8016E
:1042C0008085811181502E0D3F1DF901E050F84F7E
:1042D0008087871740F0E62FF0E0EB55FB4F808199
:1042E0008C934083872F692F782F651751F06111C8
:1042F000D1CFAFE0B0E09FE0D1CF2FE030E06FE072
:10430000B4CF87E091E09F938F930E946E12EFEFFE
:10431000F7E823E1E150F0402040E1F700C0000061
:1043200010926E0089E091E09F938F930E946E122D
:104330000F900F900F900F90DD24D3940FE71FEF95
:10434000B2E3EB2E80E3F82E0E946C0F8093E6061A
:10435000803F19F187FFF8CF807F8093A2060E94EB
:104360006C0F8093A1069091A206292F2F7E203CEE
:1043700009F434C60E946C0F8093A006282F409148
:10438000A1066091E6068091A2060E9441190E9452
:104390006C0F8093E606803FE9F6D092E5060E9416
:1043A0006C0F8093E406E091E50691E09E0F9093F8
:1043B000E506F0E0ED55F94F8083873F81F79830AF
:1043C00098F5E091A406E0939C068091A506809361
:1043D0009D063091A606A32F30939E062091A70636
:1043E000B22F20939F069091A80692FF03C0805899
:1043F00080939D0691FF04C0A0E8A30FA0939E06A2
:1044000090FF04C0B0E8B20FB0939F064E2FEE0F9E
:10441000550B660B770B4C30510508F0CAC0FA01FA
:10442000EB53FF4F0C944C2B8091A406833409F07E
:10443000C0C08091A5068F3709F0BBC08091A60649
:10444000823009F0B6C08091A7068111B2C0809178
:10445000A8068111AEC08091A9068F70AEE18A9F37
:10446000C00111242091AA06FC01E754FB4F422F02
:10447000407650E055954795559547955595479504
:1044800055954795559547954083322F3871330F91
:10449000330F330F2770232B2183FC01EF53FB4F86
:1044A0004F019C0125543B4F5901BC0162547B4F85
:1044B000DC01A354BB4FAC0144545B4F3A01FC01F7
:1044C000E154FB4F1F019C0120543B4F290140E068
:1044D00050E0BB87AA87FA01ED55F94F8085982FE8
:1044E000907792959F70998382FB992790F9282F56
:1044F0002870C22EC92A83708A832185A0E12A9F51
:10450000C001112498878F8332853F708385B0E185
:104510008B9FC00111248C29D5018C938485B0E137
:104520008B9FC0011124832BD3018C9385858F70C1
:104530002F81282BAA85BB852C938685880F880F11
:10454000BA818B2BDB018C938785D1018C93808979
:10455000282F207722952F70B0E18B9FC001112466
:10456000822BD2018C938189880F880F880FB981A3
:104570008B2BF4018083465F5F4FF7E08F0E911C19
:1045800027E0A20EB11C695F7F4F8A859B85079645
:104590009B878A8797E0690E711CA7E02A0E311C61
:1045A000B7E04B0E511C4832510509F094CF0E94E0
:1045B00040171092E506C8CEF0E28F02C001112428
:1045C0004EE1A42EB12C9C012F5F3F4F30939B06F0
:1045D00020939A060E94142B9091C00095FFFCCF67
:1045E0008093C60020E52A95F1F731E0A31AB108BF
:1045F00001F380919A0690919B06E5CFE0E28E024E
:10460000C00111248A0F911DA7FD9A95F999FECF3B
:104610006B2F0E941C2BCDCF882309F49DC68130BF
:1046200009F4FDC4833029F6809306018E830E942D
:104630006E151092B8041092B7041092B60410923E
:10464000B50410920008109201080093030810931B
:10465000020890E29093040810920708109206084E
:10466000109208081092A504D0920908D0920A0866
:1046700000930C0810930B0890930D0810921008EB
:1046800010920F0810921108D092A60492E0909315
:104690001208909313080093150810931408A0E2D1
:1046A000A0931608109219081092180810921A0870
:1046B0009093A7048E8180931B0880931C0800931D
:1046C0001E0810931D08A0931F0810922208109234
:1046D0002108109223088093A80484E08093240882
:1046E000809325080093270810932608A093280894
:1046F00010922B0810922A0810922C088093A9047B
:1047000085E080932D0880932E0800933008109345
:104710002F08A09331081092340810923308109299
:1047200035088093AA0486E0809336088093370882
:104730000093390810933808A0933A0810923D0866
:1047400010923C0810923E088093AB0487E080935F
:104750003F08809340080093420810934108A093BB
:10476000430810924608109245081092470880931B
:10477000AC0488E0809348088093490800934B0874
:1047800010934A08A0934C0810924F0810924E08BC
:10479000109250088093AD0489E080935108809373
:1047A00052080093540810935308A0935508109290
:1047B000580810925708109259088093AE048AE066
:1047C00080935A0880935B0800935D0810935C08FF
:1047D000A0935E081092610810926008109262081F
:1047E0008093AF048BE08093630880936408009308
:1047F000660810936508A093670810926A081092E3
:10480000690810926B088093B0048CE080936C0868
:1048100080936D0800936F0810936E08A093700842
:104820001092730810927208109274088093B10469
:104830008DE0809375088093760800937808109334
:104840007708A093790810927C0810927B08109248
:104850007D088093B2048EE080937E0880937F0869
:104860000093810810938008A09382081092850815
:1048700010928408109286088093B3048FE080938E
:1048800087088093880800938A0810938908A0936A
:104890008B0810928E0810928D0810928F088093CA
:1048A000B404EEEFF6E080E04AE034E022E098E085
:1048B000DF011E978C9311961C921196EC92119623
:1048C0004C9311961C9211963C9311961C92119642
:1048D00058E15C9311965C9311962C93128211828D
:1048E0001296FC9211961C9211969C9310828F5FE7
:1048F00071968031E9F65DCE0E9481178FE39CE9C5
:104900000197F1F700C000000E946E151092B804E4
:104910001092B7041092B6041092B50410920008D9
:1049200010920108009303081093020890E29093FC
:1049300004081092070810920608109208081092B6
:10494000A504D0920908D0920A0800930C0810938D
:104950000B0890930D081092100810920F081092F7
:104960001108D092A60482E0809312088093130865
:1049700000931508109314089093160810921908C4
:104980001092180810921A088093A70483E080936D
:104990001B0880931C0800931E0810931D08909319
:1049A0001F08109222081092210810922308809369
:1049B000A80484E0809324088093250800932708A6
:1049C000109326089093280810922B0810922A081A
:1049D00010922C088093A90485E080932D08809381
:1049E0002E080093300810932F08909331081092EE
:1049F000340810923308109235088093AA0486E098
:104A0000809336088093370800933908109338084C
:104A100090933A0810923D0810923C0810923E087C
:104A20008093AB0487E080933F0880934008009315
:104A30004208109341089093430810924608109240
:104A40004508109247088093AC0488E0809348089A
:104A50008093490800934B0810934A0890934C08A0
:104A600010924F0810924E08109250088093AD0497
:104A700089E0809351088093520800935408109362
:104A800053089093550810925808109257081092A6
:104A900059088093AE048AE080935A0880935B089B
:104AA00000935D0810935C0890935E081092610873
:104AB00010926008109262088093AF048BE080939C
:104AC00063088093640800936608109365089093C8
:104AD000670810926A081092690810926B08809318
:104AE000B0048CE080936C0880936D0800936F088D
:104AF00010936E08909370081092730810927208C9
:104B0000109274088093B1048DE0809375088093AF
:104B1000760800937808109377089093790810929C
:104B20007C0810927B0810927D088093B2048EE07E
:104B300080937E0880937F080093810810938008FB
:104B40009093820810928508109284088FE08093D9
:104B500087088093880800938A08109389089093A7
:104B60008B0810928E0810928D0810928F088093F7
:104B7000B404EEEFF6E080E04AE034E022E098E0B2
:104B8000DF011E978C9311961C921196EC92119650
:104B90004C9311961C9211963C9311961C9211966F
:104BA00058E15C9311965C9311962C9312821182BA
:104BB0001296FC9211961C9211969C9310828F5F14
:104BC00071968031E9F6109286088091B404809342
:104BD000B3048EE08093B4043091B204832F90E04C
:104BE000FC01EE0FFF1FEE0FFF1FEE0FFF1FDF0197
:104BF000A80FB91FA050B84F18962C91222309F482
:104C0000F6C121508E0F9F1FFC01E050F84F208706
:104C10008091B3048093B2043093B3043091B10413
:104C2000832F90E0FC01EE0FFF1FEE0FFF1FEE0F32
:104C3000FF1FDF01A80FB91FA050B84F18962C9185
:104C4000222309F4D6C121508E0F9F1FFC01E05092
:104C5000F84F20878091B2048093B1043093B2045E
:104C60003091B004832F90E0FC01EE0FFF1FEE0F98
:104C7000FF1FEE0FFF1FDF01A80FB91FA050B84F95
:104C800018962C91222309F4B8C121508E0F9F1F32
:104C9000FC01E050F84F20878091B1048093B0046C
:104CA0003093B1043091AF04832F90E0FC01EE0FFC
:104CB000FF1FEE0FFF1FEE0FFF1FDF01A80FB91F31
:104CC000A050B84F18962C91222309F494C121507A
:104CD0008E0F9F1FFC01E050F84F20878091B00499
:104CE0008093AF043093B0043091AE04832F90E0F2
:104CF000FC01EE0FFF1FEE0FFF1FEE0FFF1FDF0186
:104D0000A80FB91FA050B84F18962C91222309F470
:104D100076C121508E0F9F1FFC01E050F84F208775
:104D20008091AF048093AE043093AF043091AD0412
:104D3000832F90E0FC01EE0FFF1FEE0FFF1FEE0F21
:104D4000FF1FDF01A80FB91FA050B84F18962C9174
:104D5000222309F456C121508E0F9F1FFC01E05001
:104D6000F84F20878091AE048093AD043093AE0459
:104D70003091AC04832F90E0FC01EE0FFF1FEE0F8B
:104D8000FF1FEE0FFF1FDF01A80FB91FA050B84F84
:104D900018962C91222309F436C121508E0F9F1FA3
:104DA000FC01E050F84F20878091AD048093AC0463
:104DB0003093AD043091AB04832F90E0FC01EE0FF3
:104DC000FF1FEE0FFF1FEE0FFF1FDF01A80FB91F20
:104DD000A050B84F18962C91222309F416C12150E7
:104DE0008E0F9F1FFC01E050F84F20878091AC048C
:104DF0008093AB043093AC043091AA04832F90E0ED
:104E0000FC01EE0FFF1FEE0FFF1FEE0FFF1FDF0174
:104E1000A80FB91FA050B84F18962C91222309F45F
:104E2000F6C021508E0F9F1FFC01E050F84F2087E5
:104E30008091AB048093AA043093AB043091A90411
:104E4000832F90E0FC01EE0FFF1FEE0FFF1FEE0F10
:104E5000FF1FDF01A80FB91FA050B84F18962C9163
:104E6000222309F4D6C021508E0F9F1FFC01E05071
:104E7000F84F20878091AA048093A9043093AA0454
:104E80003091A804832F90E0FC01EE0FFF1FEE0F7E
:104E9000FF1FEE0FFF1FDF01A80FB91FA050B84F73
:104EA00018962C91222309F4B8C021508E0F9F1F11
:104EB000FC01E050F84F20878091A9048093A8045A
:104EC0003093A9043091A704832F90E0FC01EE0FEA
:104ED000FF1FEE0FFF1FEE0FFF1FDF01A80FB91F0F
:104EE000A050B84F18962C91222309F494C0215059
:104EF0008E0F9F1FFC01E050F84F20878091A8047F
:104F00008093A7043093A8043091A604832F90E0E7
:104F1000FC01EE0FFF1FEE0FFF1FEE0FFF1FDF0163
:104F2000A80FB91FA050B84F18962C91222309F44E
:104F300011C221508E0F9F1FFC01E050F84F2087B7
:104F40008091A7048093A6043093A7043091A50410
:104F5000832F90E0FC01EE0FFF1FEE0FFF1FEE0FFF
:104F6000FF1FDF01A80FB91FA050B84F18962C9152
:104F7000222309F4EDC121508E0F9F1FFC01E05048
:104F8000F84F20878091A6048093A5043093A6044F
:104F9000D09299060ECBF89460919F0680919E0660
:104FA0000E94270F789405CB5EE18502F001112461
:104FB000E754FB4FEA0FF11DA7FDFA95B083F9CA3C
:104FC0004EE18402F0011124E754FB4FEA0FF11D7A
:104FD000A7FDFA95B0830E944017EBCA2091A00666
:104FE000482F6091E606892F0E944119ADC920E043
:104FF00009CE20E029CE20E06BCE20E047CE20E095
:1050000089CE20E0A9CE20E0C9CE20E0E9CE20E084
:1050100009CF20E029CF20E06BCF20E047CF80935D
:1050200006011092F0068093010732E030931207D8
:1050300023E02093230794E09093340755E0252E36
:105040002092450766E0362E3092560777E0472ECD
:1050500040926707E8E05E2E50927807F9E06F2EE5
:1050600060928907AAE07A2E70929A07BBE08B2E95
:105070008092AB074CE0942E9092BC075DE0A52E89
:10508000A092CD076EE0B62EB092DE077FE0C72E6D
:10509000C092EF072C833B838E839D830E946E1505
:1050A0001092B8041092B7041092B6041092B5048E
:1050B0001092000810920108009303081093020850
:1050C000A0E2A0930408109207081092060810921C
:1050D00008081092A5048E818093090880930A081D
:1050E00000930C0810930B08A0930D081092100861
:1050F00010920F08109211088093A6043B81309300
:105100001208309313080093150810931408A09305
:105110001608109219081092180810921A08309365
:10512000A7042C8120931B0820931C0800931E08C1
:1051300010931D08A0931F081092220810922108B6
:10514000109223082093A8049D81909324089093A3
:1051500025080093270810932608A093280810928A
:105160002B0810922A0810922C089093A9042092E0
:105170002D0820922E080093300810932F08A0933A
:10518000310810923408109233081092350820929A
:10519000AA043092360830923708009339081093E9
:1051A0003808A0933A0810923D0810923C081092DB
:1051B0003E083092AB0440923F0840924008009372
:1051C000420810934108A093430810924608109299
:1051D0004508109247084092AC04509248085092FB
:1051E000490800934B0810934A08A0934C0810926A
:1051F0004F0810924E08109250085092AD046092E1
:105200005108609252080093540810935308A093D9
:105210005508109258081092570810925908609239
:10522000AE0470925A0870925B0800935D08109368
:105230005C08A0935E0810926108109260081092BA
:1052400062087092AF0480926308809264080093B1
:10525000660810936508A093670810926A08109278
:10526000690810926B088092B00490926C0890923A
:105270006D0800936F0810936E08A0937008109249
:10528000730810927208109274089092B104A09260
:105290007508A09276080093780810937708A09379
:1052A000790810927C0810927B0810927D08A092D9
:1052B000B204B0927E08B0927F08009381081093E8
:1052C0008008A0938208109285081092840810929A
:1052D0008608B092B304C0928708C09288080093F1
:1052E0008A0810938908A0938B0810928E08109258
:1052F0008D0810928F08C092B404EEEFF6E080E0C3
:105300004AE034E022E098E0DF011E978C9311968A
:105310001C921196EC9211964C9311961C92119638
:105320003C9311961C92119658E15C9311965C93F4
:1053300011962C93128211821296FC9211961C9255
:1053400011969C9310828F5F71968031E9F631C976
:1053500020E012CE20E0EECD109206010E946E15E4
:105360001092B8041092B7041092B6041092B504CB
:10537000109200081092010800930308109302088D
:1053800080E2809304081092070810920608109299
:1053900008081092A504D0920908D0920A08009338
:1053A0000C0810930B0880930D08109210081092AF
:1053B0000F0810921108D092A60482E08093120880
:1053C00080931308009315081093140890E29093AB
:1053D0001608109219081092180810921A08809353
:1053E000A70483E080931B0880931C0800931E0889
:1053F00010931D0890931F08109222081092210804
:10540000109223088093A80484E08093240880935A
:1054100025080093270810932608909328081092D7
:105420002B0810922A0810922C088093A90485E07A
:1054300080932D0880932E080093300810932F0836
:105440009093310810923408109233081092350866
:105450008093AA0486E080933608809337080093EF
:1054600039081093380890933A0810923D0810922A
:105470003C0810923E088093AB0487E080933F087D
:10548000809340080093420810934108909343088A
:105490001092460810924508109247088093AC0479
:1054A00088E0809348088093490800934B08109344
:1054B0004A0890934C0810924F0810924E08109290
:1054C00050088093AD0489E080935108809352087E
:1054D000009354081093530890935508109258085D
:1054E00010925708109259088093AE048AE0809376
:1054F0005A0880935B0800935D0810935C089093B2
:105500005E08109261081092600810926208809301
:10551000AF048BE08093630880936408009366086F
:10552000109365089093670810926A0810926908B2
:1055300010926B088093B0048CE080936C08809389
:105540006D0800936F0810936E0890937008109286
:10555000730810927208109274088093B1048DE061
:1055600080937508809376080093780810937708E5
:105570009093790810927C0810927B0810927D0815
:105580008093B2048EE080937E0880937F0800931E
:1055900081081093800890938208109285081092D9
:1055A0008408109286088093B3048FE08093870864
:1055B0008093880800938A081093890890938B0839
:1055C00010928E0810928D0810928F088093B40468
:1055D000EEEFF6E080E04AE034E022E098E0DF0120
:1055E0001E978C9311961C921196EC9211964C93E7
:1055F00011961C9211963C9311961C92119658E1AB
:105600005C9311965C9311962C93128211821296E0
:10561000FC9211961C9211969C9310828F5F71964A
:105620008031E9F60C94D922F999FECF92BD81BD63
:10563000F89A992780B50895262FF999FECF1FBAB9
:1056400092BD81BD20BD0FB6F894FA9AF99A0FBEAB
:1056500001960895A1E21A2EAA1BBB1BFD010DC0E5
:10566000AA1FBB1FEE1FFF1FA217B307E407F50712
:1056700020F0A21BB30BE40BF50B661F771F881FEE
:10568000991F1A9469F760957095809590959B0184
:10569000AC01BD01CF010895EE0FFF1F0590F491FD
:1056A000E02D0994DC0101C06D9341505040E0F7BA
:0656B0000895F894FFCFFD
:1056B600000000000000012D0068656C6C6F0000A2
:00000001FF
